{"abi":[{"type":"constructor","inputs":[],"stateMutability":"nonpayable"},{"type":"receive","stateMutability":"payable"},{"type":"function","name":"_paymasterValidation","inputs":[{"name":"opIndex","type":"uint256","internalType":"uint256"},{"name":"userOp","type":"tuple","internalType":"struct PackedUserOperation","components":[{"name":"sender","type":"address","internalType":"address"},{"name":"nonce","type":"uint256","internalType":"uint256"},{"name":"initCode","type":"bytes","internalType":"bytes"},{"name":"callData","type":"bytes","internalType":"bytes"},{"name":"accountGasLimits","type":"bytes32","internalType":"bytes32"},{"name":"preVerificationGas","type":"uint256","internalType":"uint256"},{"name":"gasFees","type":"bytes32","internalType":"bytes32"},{"name":"paymasterAndData","type":"bytes","internalType":"bytes"},{"name":"signature","type":"bytes","internalType":"bytes"}]},{"name":"outOpInfo","type":"tuple","internalType":"struct EntryPoint.UserOpInfo","components":[{"name":"mUserOp","type":"tuple","internalType":"struct EntryPoint.MemoryUserOp","components":[{"name":"sender","type":"address","internalType":"address"},{"name":"nonce","type":"uint256","internalType":"uint256"},{"name":"verificationGasLimit","type":"uint256","internalType":"uint256"},{"name":"callGasLimit","type":"uint256","internalType":"uint256"},{"name":"paymasterVerificationGasLimit","type":"uint256","internalType":"uint256"},{"name":"paymasterPostOpGasLimit","type":"uint256","internalType":"uint256"},{"name":"preVerificationGas","type":"uint256","internalType":"uint256"},{"name":"paymaster","type":"address","internalType":"address"},{"name":"maxFeePerGas","type":"uint256","internalType":"uint256"},{"name":"maxPriorityFeePerGas","type":"uint256","internalType":"uint256"}]},{"name":"userOpHash","type":"bytes32","internalType":"bytes32"},{"name":"prefund","type":"uint256","internalType":"uint256"},{"name":"contextOffset","type":"uint256","internalType":"uint256"},{"name":"preOpGas","type":"uint256","internalType":"uint256"}]}],"outputs":[{"name":"validationData","type":"uint256","internalType":"uint256"},{"name":"paymasterValidationData","type":"uint256","internalType":"uint256"},{"name":"paymasterVerificationGasLimit","type":"uint256","internalType":"uint256"}],"stateMutability":"nonpayable"},{"type":"function","name":"_validatePrepayment","inputs":[{"name":"opIndex","type":"uint256","internalType":"uint256"},{"name":"userOp","type":"tuple","internalType":"struct PackedUserOperation","components":[{"name":"sender","type":"address","internalType":"address"},{"name":"nonce","type":"uint256","internalType":"uint256"},{"name":"initCode","type":"bytes","internalType":"bytes"},{"name":"callData","type":"bytes","internalType":"bytes"},{"name":"accountGasLimits","type":"bytes32","internalType":"bytes32"},{"name":"preVerificationGas","type":"uint256","internalType":"uint256"},{"name":"gasFees","type":"bytes32","internalType":"bytes32"},{"name":"paymasterAndData","type":"bytes","internalType":"bytes"},{"name":"signature","type":"bytes","internalType":"bytes"}]},{"name":"outOpInfo","type":"tuple","internalType":"struct EntryPoint.UserOpInfo","components":[{"name":"mUserOp","type":"tuple","internalType":"struct EntryPoint.MemoryUserOp","components":[{"name":"sender","type":"address","internalType":"address"},{"name":"nonce","type":"uint256","internalType":"uint256"},{"name":"verificationGasLimit","type":"uint256","internalType":"uint256"},{"name":"callGasLimit","type":"uint256","internalType":"uint256"},{"name":"paymasterVerificationGasLimit","type":"uint256","internalType":"uint256"},{"name":"paymasterPostOpGasLimit","type":"uint256","internalType":"uint256"},{"name":"preVerificationGas","type":"uint256","internalType":"uint256"},{"name":"paymaster","type":"address","internalType":"address"},{"name":"maxFeePerGas","type":"uint256","internalType":"uint256"},{"name":"maxPriorityFeePerGas","type":"uint256","internalType":"uint256"}]},{"name":"userOpHash","type":"bytes32","internalType":"bytes32"},{"name":"prefund","type":"uint256","internalType":"uint256"},{"name":"contextOffset","type":"uint256","internalType":"uint256"},{"name":"preOpGas","type":"uint256","internalType":"uint256"}]},{"name":"validatePaymasterPrepayment","type":"bool","internalType":"bool"}],"outputs":[{"name":"validationData","type":"uint256","internalType":"uint256"},{"name":"paymasterValidationData","type":"uint256","internalType":"uint256"},{"name":"paymasterVerificationGasLimit","type":"uint256","internalType":"uint256"}],"stateMutability":"nonpayable"},{"type":"function","name":"addStake","inputs":[{"name":"unstakeDelaySec","type":"uint32","internalType":"uint32"}],"outputs":[],"stateMutability":"payable"},{"type":"function","name":"balanceOf","inputs":[{"name":"account","type":"address","internalType":"address"}],"outputs":[{"name":"","type":"uint256","internalType":"uint256"}],"stateMutability":"view"},{"type":"function","name":"binarySearchCallGas","inputs":[{"name":"queuedUserOps","type":"tuple[]","internalType":"struct PackedUserOperation[]","components":[{"name":"sender","type":"address","internalType":"address"},{"name":"nonce","type":"uint256","internalType":"uint256"},{"name":"initCode","type":"bytes","internalType":"bytes"},{"name":"callData","type":"bytes","internalType":"bytes"},{"name":"accountGasLimits","type":"bytes32","internalType":"bytes32"},{"name":"preVerificationGas","type":"uint256","internalType":"uint256"},{"name":"gasFees","type":"bytes32","internalType":"bytes32"},{"name":"paymasterAndData","type":"bytes","internalType":"bytes"},{"name":"signature","type":"bytes","internalType":"bytes"}]},{"name":"targetUserOp","type":"tuple","internalType":"struct PackedUserOperation","components":[{"name":"sender","type":"address","internalType":"address"},{"name":"nonce","type":"uint256","internalType":"uint256"},{"name":"initCode","type":"bytes","internalType":"bytes"},{"name":"callData","type":"bytes","internalType":"bytes"},{"name":"accountGasLimits","type":"bytes32","internalType":"bytes32"},{"name":"preVerificationGas","type":"uint256","internalType":"uint256"},{"name":"gasFees","type":"bytes32","internalType":"bytes32"},{"name":"paymasterAndData","type":"bytes","internalType":"bytes"},{"name":"signature","type":"bytes","internalType":"bytes"}]},{"name":"entryPoint","type":"address","internalType":"address"},{"name":"initialMinGas","type":"uint256","internalType":"uint256"},{"name":"toleranceDelta","type":"uint256","internalType":"uint256"},{"name":"gasAllowance","type":"uint256","internalType":"uint256"}],"outputs":[{"name":"","type":"tuple","internalType":"struct IEntryPointSimulations.BinarySearchResult","components":[{"name":"resultType","type":"uint8","internalType":"enum IEntryPointSimulations.BinarySearchResultType"},{"name":"successData","type":"tuple","internalType":"struct IEntryPointSimulations.BinarySearchSuccess","components":[{"name":"gasUsed","type":"uint256","internalType":"uint256"},{"name":"success","type":"bool","internalType":"bool"},{"name":"returnData","type":"bytes","internalType":"bytes"}]},{"name":"outOfGasData","type":"tuple","internalType":"struct IEntryPointSimulations.BinarySearchOutOfGas","components":[{"name":"optimalGas","type":"uint256","internalType":"uint256"},{"name":"minGas","type":"uint256","internalType":"uint256"},{"name":"maxGas","type":"uint256","internalType":"uint256"}]}]}],"stateMutability":"nonpayable"},{"type":"function","name":"binarySearchPaymasterVerificationGas","inputs":[{"name":"queuedUserOps","type":"tuple[]","internalType":"struct PackedUserOperation[]","components":[{"name":"sender","type":"address","internalType":"address"},{"name":"nonce","type":"uint256","internalType":"uint256"},{"name":"initCode","type":"bytes","internalType":"bytes"},{"name":"callData","type":"bytes","internalType":"bytes"},{"name":"accountGasLimits","type":"bytes32","internalType":"bytes32"},{"name":"preVerificationGas","type":"uint256","internalType":"uint256"},{"name":"gasFees","type":"bytes32","internalType":"bytes32"},{"name":"paymasterAndData","type":"bytes","internalType":"bytes"},{"name":"signature","type":"bytes","internalType":"bytes"}]},{"name":"targetUserOp","type":"tuple","internalType":"struct PackedUserOperation","components":[{"name":"sender","type":"address","internalType":"address"},{"name":"nonce","type":"uint256","internalType":"uint256"},{"name":"initCode","type":"bytes","internalType":"bytes"},{"name":"callData","type":"bytes","internalType":"bytes"},{"name":"accountGasLimits","type":"bytes32","internalType":"bytes32"},{"name":"preVerificationGas","type":"uint256","internalType":"uint256"},{"name":"gasFees","type":"bytes32","internalType":"bytes32"},{"name":"paymasterAndData","type":"bytes","internalType":"bytes"},{"name":"signature","type":"bytes","internalType":"bytes"}]},{"name":"entryPoint","type":"address","internalType":"address"},{"name":"initialMinGas","type":"uint256","internalType":"uint256"},{"name":"toleranceDelta","type":"uint256","internalType":"uint256"},{"name":"gasAllowance","type":"uint256","internalType":"uint256"}],"outputs":[{"name":"","type":"tuple","internalType":"struct IEntryPointSimulations.BinarySearchResult","components":[{"name":"resultType","type":"uint8","internalType":"enum IEntryPointSimulations.BinarySearchResultType"},{"name":"successData","type":"tuple","internalType":"struct IEntryPointSimulations.BinarySearchSuccess","components":[{"name":"gasUsed","type":"uint256","internalType":"uint256"},{"name":"success","type":"bool","internalType":"bool"},{"name":"returnData","type":"bytes","internalType":"bytes"}]},{"name":"outOfGasData","type":"tuple","internalType":"struct IEntryPointSimulations.BinarySearchOutOfGas","components":[{"name":"optimalGas","type":"uint256","internalType":"uint256"},{"name":"minGas","type":"uint256","internalType":"uint256"},{"name":"maxGas","type":"uint256","internalType":"uint256"}]}]}],"stateMutability":"nonpayable"},{"type":"function","name":"binarySearchVerificationGas","inputs":[{"name":"queuedUserOps","type":"tuple[]","internalType":"struct PackedUserOperation[]","components":[{"name":"sender","type":"address","internalType":"address"},{"name":"nonce","type":"uint256","internalType":"uint256"},{"name":"initCode","type":"bytes","internalType":"bytes"},{"name":"callData","type":"bytes","internalType":"bytes"},{"name":"accountGasLimits","type":"bytes32","internalType":"bytes32"},{"name":"preVerificationGas","type":"uint256","internalType":"uint256"},{"name":"gasFees","type":"bytes32","internalType":"bytes32"},{"name":"paymasterAndData","type":"bytes","internalType":"bytes"},{"name":"signature","type":"bytes","internalType":"bytes"}]},{"name":"targetUserOp","type":"tuple","internalType":"struct PackedUserOperation","components":[{"name":"sender","type":"address","internalType":"address"},{"name":"nonce","type":"uint256","internalType":"uint256"},{"name":"initCode","type":"bytes","internalType":"bytes"},{"name":"callData","type":"bytes","internalType":"bytes"},{"name":"accountGasLimits","type":"bytes32","internalType":"bytes32"},{"name":"preVerificationGas","type":"uint256","internalType":"uint256"},{"name":"gasFees","type":"bytes32","internalType":"bytes32"},{"name":"paymasterAndData","type":"bytes","internalType":"bytes"},{"name":"signature","type":"bytes","internalType":"bytes"}]},{"name":"entryPoint","type":"address","internalType":"address"},{"name":"initialMinGas","type":"uint256","internalType":"uint256"},{"name":"toleranceDelta","type":"uint256","internalType":"uint256"},{"name":"gasAllowance","type":"uint256","internalType":"uint256"}],"outputs":[{"name":"","type":"tuple","internalType":"struct IEntryPointSimulations.BinarySearchResult","components":[{"name":"resultType","type":"uint8","internalType":"enum IEntryPointSimulations.BinarySearchResultType"},{"name":"successData","type":"tuple","internalType":"struct IEntryPointSimulations.BinarySearchSuccess","components":[{"name":"gasUsed","type":"uint256","internalType":"uint256"},{"name":"success","type":"bool","internalType":"bool"},{"name":"returnData","type":"bytes","internalType":"bytes"}]},{"name":"outOfGasData","type":"tuple","internalType":"struct IEntryPointSimulations.BinarySearchOutOfGas","components":[{"name":"optimalGas","type":"uint256","internalType":"uint256"},{"name":"minGas","type":"uint256","internalType":"uint256"},{"name":"maxGas","type":"uint256","internalType":"uint256"}]}]}],"stateMutability":"nonpayable"},{"type":"function","name":"delegateAndRevert","inputs":[{"name":"","type":"address","internalType":"address"},{"name":"","type":"bytes","internalType":"bytes"}],"outputs":[],"stateMutability":"pure"},{"type":"function","name":"depositTo","inputs":[{"name":"account","type":"address","internalType":"address"}],"outputs":[],"stateMutability":"payable"},{"type":"function","name":"deposits","inputs":[{"name":"","type":"address","internalType":"address"}],"outputs":[{"name":"deposit","type":"uint256","internalType":"uint256"},{"name":"staked","type":"bool","internalType":"bool"},{"name":"stake","type":"uint112","internalType":"uint112"},{"name":"unstakeDelaySec","type":"uint32","internalType":"uint32"},{"name":"withdrawTime","type":"uint48","internalType":"uint48"}],"stateMutability":"view"},{"type":"function","name":"getDepositInfo","inputs":[{"name":"account","type":"address","internalType":"address"}],"outputs":[{"name":"info","type":"tuple","internalType":"struct IStakeManager.DepositInfo","components":[{"name":"deposit","type":"uint256","internalType":"uint256"},{"name":"staked","type":"bool","internalType":"bool"},{"name":"stake","type":"uint112","internalType":"uint112"},{"name":"unstakeDelaySec","type":"uint32","internalType":"uint32"},{"name":"withdrawTime","type":"uint48","internalType":"uint48"}]}],"stateMutability":"view"},{"type":"function","name":"getNonce","inputs":[{"name":"sender","type":"address","internalType":"address"},{"name":"key","type":"uint192","internalType":"uint192"}],"outputs":[{"name":"nonce","type":"uint256","internalType":"uint256"}],"stateMutability":"view"},{"type":"function","name":"getSenderAddress","inputs":[{"name":"initCode","type":"bytes","internalType":"bytes"}],"outputs":[],"stateMutability":"nonpayable"},{"type":"function","name":"getUserOpHash","inputs":[{"name":"userOp","type":"tuple","internalType":"struct PackedUserOperation","components":[{"name":"sender","type":"address","internalType":"address"},{"name":"nonce","type":"uint256","internalType":"uint256"},{"name":"initCode","type":"bytes","internalType":"bytes"},{"name":"callData","type":"bytes","internalType":"bytes"},{"name":"accountGasLimits","type":"bytes32","internalType":"bytes32"},{"name":"preVerificationGas","type":"uint256","internalType":"uint256"},{"name":"gasFees","type":"bytes32","internalType":"bytes32"},{"name":"paymasterAndData","type":"bytes","internalType":"bytes"},{"name":"signature","type":"bytes","internalType":"bytes"}]}],"outputs":[{"name":"","type":"bytes32","internalType":"bytes32"}],"stateMutability":"view"},{"type":"function","name":"handleAggregatedOps","inputs":[{"name":"","type":"tuple[]","internalType":"struct IEntryPoint.UserOpsPerAggregator[]","components":[{"name":"userOps","type":"tuple[]","internalType":"struct PackedUserOperation[]","components":[{"name":"sender","type":"address","internalType":"address"},{"name":"nonce","type":"uint256","internalType":"uint256"},{"name":"initCode","type":"bytes","internalType":"bytes"},{"name":"callData","type":"bytes","internalType":"bytes"},{"name":"accountGasLimits","type":"bytes32","internalType":"bytes32"},{"name":"preVerificationGas","type":"uint256","internalType":"uint256"},{"name":"gasFees","type":"bytes32","internalType":"bytes32"},{"name":"paymasterAndData","type":"bytes","internalType":"bytes"},{"name":"signature","type":"bytes","internalType":"bytes"}]},{"name":"aggregator","type":"address","internalType":"contract IAggregator"},{"name":"signature","type":"bytes","internalType":"bytes"}]},{"name":"","type":"address","internalType":"address payable"}],"outputs":[],"stateMutability":"pure"},{"type":"function","name":"handleOps","inputs":[{"name":"","type":"tuple[]","internalType":"struct PackedUserOperation[]","components":[{"name":"sender","type":"address","internalType":"address"},{"name":"nonce","type":"uint256","internalType":"uint256"},{"name":"initCode","type":"bytes","internalType":"bytes"},{"name":"callData","type":"bytes","internalType":"bytes"},{"name":"accountGasLimits","type":"bytes32","internalType":"bytes32"},{"name":"preVerificationGas","type":"uint256","internalType":"uint256"},{"name":"gasFees","type":"bytes32","internalType":"bytes32"},{"name":"paymasterAndData","type":"bytes","internalType":"bytes"},{"name":"signature","type":"bytes","internalType":"bytes"}]},{"name":"","type":"address","internalType":"address payable"}],"outputs":[],"stateMutability":"pure"},{"type":"function","name":"incrementNonce","inputs":[{"name":"key","type":"uint192","internalType":"uint192"}],"outputs":[],"stateMutability":"nonpayable"},{"type":"function","name":"innerHandleOp","inputs":[{"name":"callData","type":"bytes","internalType":"bytes"},{"name":"opInfo","type":"tuple","internalType":"struct EntryPoint.UserOpInfo","components":[{"name":"mUserOp","type":"tuple","internalType":"struct EntryPoint.MemoryUserOp","components":[{"name":"sender","type":"address","internalType":"address"},{"name":"nonce","type":"uint256","internalType":"uint256"},{"name":"verificationGasLimit","type":"uint256","internalType":"uint256"},{"name":"callGasLimit","type":"uint256","internalType":"uint256"},{"name":"paymasterVerificationGasLimit","type":"uint256","internalType":"uint256"},{"name":"paymasterPostOpGasLimit","type":"uint256","internalType":"uint256"},{"name":"preVerificationGas","type":"uint256","internalType":"uint256"},{"name":"paymaster","type":"address","internalType":"address"},{"name":"maxFeePerGas","type":"uint256","internalType":"uint256"},{"name":"maxPriorityFeePerGas","type":"uint256","internalType":"uint256"}]},{"name":"userOpHash","type":"bytes32","internalType":"bytes32"},{"name":"prefund","type":"uint256","internalType":"uint256"},{"name":"contextOffset","type":"uint256","internalType":"uint256"},{"name":"preOpGas","type":"uint256","internalType":"uint256"}]},{"name":"context","type":"bytes","internalType":"bytes"},{"name":"preGas","type":"uint256","internalType":"uint256"}],"outputs":[{"name":"actualGasCost","type":"uint256","internalType":"uint256"},{"name":"paymasterPostOpGasLimit","type":"uint256","internalType":"uint256"}],"stateMutability":"nonpayable"},{"type":"function","name":"nonceSequenceNumber","inputs":[{"name":"","type":"address","internalType":"address"},{"name":"","type":"uint192","internalType":"uint192"}],"outputs":[{"name":"","type":"uint256","internalType":"uint256"}],"stateMutability":"view"},{"type":"function","name":"simulateCall","inputs":[{"name":"entryPoint","type":"address","internalType":"address"},{"name":"payload","type":"bytes","internalType":"bytes"},{"name":"gas","type":"uint256","internalType":"uint256"}],"outputs":[{"name":"success","type":"bool","internalType":"bool"},{"name":"result","type":"bytes","internalType":"bytes"}],"stateMutability":"nonpayable"},{"type":"function","name":"simulateCallAndRevert","inputs":[{"name":"target","type":"address","internalType":"address"},{"name":"data","type":"bytes","internalType":"bytes"},{"name":"gas","type":"uint256","internalType":"uint256"}],"outputs":[],"stateMutability":"nonpayable"},{"type":"function","name":"simulateHandleOp","inputs":[{"name":"queuedUserOps","type":"tuple[]","internalType":"struct PackedUserOperation[]","components":[{"name":"sender","type":"address","internalType":"address"},{"name":"nonce","type":"uint256","internalType":"uint256"},{"name":"initCode","type":"bytes","internalType":"bytes"},{"name":"callData","type":"bytes","internalType":"bytes"},{"name":"accountGasLimits","type":"bytes32","internalType":"bytes32"},{"name":"preVerificationGas","type":"uint256","internalType":"uint256"},{"name":"gasFees","type":"bytes32","internalType":"bytes32"},{"name":"paymasterAndData","type":"bytes","internalType":"bytes"},{"name":"signature","type":"bytes","internalType":"bytes"}]},{"name":"targetUserOp","type":"tuple","internalType":"struct PackedUserOperation","components":[{"name":"sender","type":"address","internalType":"address"},{"name":"nonce","type":"uint256","internalType":"uint256"},{"name":"initCode","type":"bytes","internalType":"bytes"},{"name":"callData","type":"bytes","internalType":"bytes"},{"name":"accountGasLimits","type":"bytes32","internalType":"bytes32"},{"name":"preVerificationGas","type":"uint256","internalType":"uint256"},{"name":"gasFees","type":"bytes32","internalType":"bytes32"},{"name":"paymasterAndData","type":"bytes","internalType":"bytes"},{"name":"signature","type":"bytes","internalType":"bytes"}]}],"outputs":[{"name":"","type":"tuple","internalType":"struct IEntryPointSimulations.ExecutionResult","components":[{"name":"preOpGas","type":"uint256","internalType":"uint256"},{"name":"paid","type":"uint256","internalType":"uint256"},{"name":"accountValidationData","type":"uint256","internalType":"uint256"},{"name":"paymasterValidationData","type":"uint256","internalType":"uint256"},{"name":"paymasterVerificationGasLimit","type":"uint256","internalType":"uint256"},{"name":"paymasterPostOpGasLimit","type":"uint256","internalType":"uint256"},{"name":"targetSuccess","type":"bool","internalType":"bool"},{"name":"targetResult","type":"bytes","internalType":"bytes"}]}],"stateMutability":"nonpayable"},{"type":"function","name":"simulateHandleOpSingle","inputs":[{"name":"op","type":"tuple","internalType":"struct PackedUserOperation","components":[{"name":"sender","type":"address","internalType":"address"},{"name":"nonce","type":"uint256","internalType":"uint256"},{"name":"initCode","type":"bytes","internalType":"bytes"},{"name":"callData","type":"bytes","internalType":"bytes"},{"name":"accountGasLimits","type":"bytes32","internalType":"bytes32"},{"name":"preVerificationGas","type":"uint256","internalType":"uint256"},{"name":"gasFees","type":"bytes32","internalType":"bytes32"},{"name":"paymasterAndData","type":"bytes","internalType":"bytes"},{"name":"signature","type":"bytes","internalType":"bytes"}]},{"name":"target","type":"address","internalType":"address"},{"name":"targetCallData","type":"bytes","internalType":"bytes"}],"outputs":[{"name":"","type":"tuple","internalType":"struct IEntryPointSimulations.ExecutionResult","components":[{"name":"preOpGas","type":"uint256","internalType":"uint256"},{"name":"paid","type":"uint256","internalType":"uint256"},{"name":"accountValidationData","type":"uint256","internalType":"uint256"},{"name":"paymasterValidationData","type":"uint256","internalType":"uint256"},{"name":"paymasterVerificationGasLimit","type":"uint256","internalType":"uint256"},{"name":"paymasterPostOpGasLimit","type":"uint256","internalType":"uint256"},{"name":"targetSuccess","type":"bool","internalType":"bool"},{"name":"targetResult","type":"bytes","internalType":"bytes"}]}],"stateMutability":"nonpayable"},{"type":"function","name":"simulateValidation","inputs":[{"name":"queuedUserOps","type":"tuple[]","internalType":"struct PackedUserOperation[]","components":[{"name":"sender","type":"address","internalType":"address"},{"name":"nonce","type":"uint256","internalType":"uint256"},{"name":"initCode","type":"bytes","internalType":"bytes"},{"name":"callData","type":"bytes","internalType":"bytes"},{"name":"accountGasLimits","type":"bytes32","internalType":"bytes32"},{"name":"preVerificationGas","type":"uint256","internalType":"uint256"},{"name":"gasFees","type":"bytes32","internalType":"bytes32"},{"name":"paymasterAndData","type":"bytes","internalType":"bytes"},{"name":"signature","type":"bytes","internalType":"bytes"}]},{"name":"targetUserOp","type":"tuple","internalType":"struct PackedUserOperation","components":[{"name":"sender","type":"address","internalType":"address"},{"name":"nonce","type":"uint256","internalType":"uint256"},{"name":"initCode","type":"bytes","internalType":"bytes"},{"name":"callData","type":"bytes","internalType":"bytes"},{"name":"accountGasLimits","type":"bytes32","internalType":"bytes32"},{"name":"preVerificationGas","type":"uint256","internalType":"uint256"},{"name":"gasFees","type":"bytes32","internalType":"bytes32"},{"name":"paymasterAndData","type":"bytes","internalType":"bytes"},{"name":"signature","type":"bytes","internalType":"bytes"}]}],"outputs":[{"name":"","type":"tuple","internalType":"struct IEntryPointSimulations.ValidationResult","components":[{"name":"returnInfo","type":"tuple","internalType":"struct IEntryPoint.ReturnInfo","components":[{"name":"preOpGas","type":"uint256","internalType":"uint256"},{"name":"prefund","type":"uint256","internalType":"uint256"},{"name":"accountValidationData","type":"uint256","internalType":"uint256"},{"name":"paymasterValidationData","type":"uint256","internalType":"uint256"},{"name":"paymasterContext","type":"bytes","internalType":"bytes"}]},{"name":"senderInfo","type":"tuple","internalType":"struct IStakeManager.StakeInfo","components":[{"name":"stake","type":"uint256","internalType":"uint256"},{"name":"unstakeDelaySec","type":"uint256","internalType":"uint256"}]},{"name":"factoryInfo","type":"tuple","internalType":"struct IStakeManager.StakeInfo","components":[{"name":"stake","type":"uint256","internalType":"uint256"},{"name":"unstakeDelaySec","type":"uint256","internalType":"uint256"}]},{"name":"paymasterInfo","type":"tuple","internalType":"struct IStakeManager.StakeInfo","components":[{"name":"stake","type":"uint256","internalType":"uint256"},{"name":"unstakeDelaySec","type":"uint256","internalType":"uint256"}]},{"name":"aggregatorInfo","type":"tuple","internalType":"struct IEntryPoint.AggregatorStakeInfo","components":[{"name":"aggregator","type":"address","internalType":"address"},{"name":"stakeInfo","type":"tuple","internalType":"struct IStakeManager.StakeInfo","components":[{"name":"stake","type":"uint256","internalType":"uint256"},{"name":"unstakeDelaySec","type":"uint256","internalType":"uint256"}]}]}]}],"stateMutability":"nonpayable"},{"type":"function","name":"simulateValidation","inputs":[{"name":"userOp","type":"tuple","internalType":"struct PackedUserOperation","components":[{"name":"sender","type":"address","internalType":"address"},{"name":"nonce","type":"uint256","internalType":"uint256"},{"name":"initCode","type":"bytes","internalType":"bytes"},{"name":"callData","type":"bytes","internalType":"bytes"},{"name":"accountGasLimits","type":"bytes32","internalType":"bytes32"},{"name":"preVerificationGas","type":"uint256","internalType":"uint256"},{"name":"gasFees","type":"bytes32","internalType":"bytes32"},{"name":"paymasterAndData","type":"bytes","internalType":"bytes"},{"name":"signature","type":"bytes","internalType":"bytes"}]}],"outputs":[{"name":"","type":"tuple","internalType":"struct IEntryPointSimulations.ValidationResult","components":[{"name":"returnInfo","type":"tuple","internalType":"struct IEntryPoint.ReturnInfo","components":[{"name":"preOpGas","type":"uint256","internalType":"uint256"},{"name":"prefund","type":"uint256","internalType":"uint256"},{"name":"accountValidationData","type":"uint256","internalType":"uint256"},{"name":"paymasterValidationData","type":"uint256","internalType":"uint256"},{"name":"paymasterContext","type":"bytes","internalType":"bytes"}]},{"name":"senderInfo","type":"tuple","internalType":"struct IStakeManager.StakeInfo","components":[{"name":"stake","type":"uint256","internalType":"uint256"},{"name":"unstakeDelaySec","type":"uint256","internalType":"uint256"}]},{"name":"factoryInfo","type":"tuple","internalType":"struct IStakeManager.StakeInfo","components":[{"name":"stake","type":"uint256","internalType":"uint256"},{"name":"unstakeDelaySec","type":"uint256","internalType":"uint256"}]},{"name":"paymasterInfo","type":"tuple","internalType":"struct IStakeManager.StakeInfo","components":[{"name":"stake","type":"uint256","internalType":"uint256"},{"name":"unstakeDelaySec","type":"uint256","internalType":"uint256"}]},{"name":"aggregatorInfo","type":"tuple","internalType":"struct IEntryPoint.AggregatorStakeInfo","components":[{"name":"aggregator","type":"address","internalType":"address"},{"name":"stakeInfo","type":"tuple","internalType":"struct IStakeManager.StakeInfo","components":[{"name":"stake","type":"uint256","internalType":"uint256"},{"name":"unstakeDelaySec","type":"uint256","internalType":"uint256"}]}]}]}],"stateMutability":"nonpayable"},{"type":"function","name":"unlockStake","inputs":[],"outputs":[],"stateMutability":"nonpayable"},{"type":"function","name":"withdrawStake","inputs":[{"name":"withdrawAddress","type":"address","internalType":"address payable"}],"outputs":[],"stateMutability":"nonpayable"},{"type":"function","name":"withdrawTo","inputs":[{"name":"withdrawAddress","type":"address","internalType":"address payable"},{"name":"withdrawAmount","type":"uint256","internalType":"uint256"}],"outputs":[],"stateMutability":"nonpayable"},{"type":"event","name":"AccountDeployed","inputs":[{"name":"userOpHash","type":"bytes32","indexed":true,"internalType":"bytes32"},{"name":"sender","type":"address","indexed":true,"internalType":"address"},{"name":"factory","type":"address","indexed":false,"internalType":"address"},{"name":"paymaster","type":"address","indexed":false,"internalType":"address"}],"anonymous":false},{"type":"event","name":"BeforeExecution","inputs":[],"anonymous":false},{"type":"event","name":"Deposited","inputs":[{"name":"account","type":"address","indexed":true,"internalType":"address"},{"name":"totalDeposit","type":"uint256","indexed":false,"internalType":"uint256"}],"anonymous":false},{"type":"event","name":"PostOpRevertReason","inputs":[{"name":"userOpHash","type":"bytes32","indexed":true,"internalType":"bytes32"},{"name":"sender","type":"address","indexed":true,"internalType":"address"},{"name":"nonce","type":"uint256","indexed":false,"internalType":"uint256"},{"name":"revertReason","type":"bytes","indexed":false,"internalType":"bytes"}],"anonymous":false},{"type":"event","name":"SignatureAggregatorChanged","inputs":[{"name":"aggregator","type":"address","indexed":true,"internalType":"address"}],"anonymous":false},{"type":"event","name":"StakeLocked","inputs":[{"name":"account","type":"address","indexed":true,"internalType":"address"},{"name":"totalStaked","type":"uint256","indexed":false,"internalType":"uint256"},{"name":"unstakeDelaySec","type":"uint256","indexed":false,"internalType":"uint256"}],"anonymous":false},{"type":"event","name":"StakeUnlocked","inputs":[{"name":"account","type":"address","indexed":true,"internalType":"address"},{"name":"withdrawTime","type":"uint256","indexed":false,"internalType":"uint256"}],"anonymous":false},{"type":"event","name":"StakeWithdrawn","inputs":[{"name":"account","type":"address","indexed":true,"internalType":"address"},{"name":"withdrawAddress","type":"address","indexed":false,"internalType":"address"},{"name":"amount","type":"uint256","indexed":false,"internalType":"uint256"}],"anonymous":false},{"type":"event","name":"UserOperationEvent","inputs":[{"name":"userOpHash","type":"bytes32","indexed":true,"internalType":"bytes32"},{"name":"sender","type":"address","indexed":true,"internalType":"address"},{"name":"paymaster","type":"address","indexed":true,"internalType":"address"},{"name":"nonce","type":"uint256","indexed":false,"internalType":"uint256"},{"name":"success","type":"bool","indexed":false,"internalType":"bool"},{"name":"actualGasCost","type":"uint256","indexed":false,"internalType":"uint256"},{"name":"actualGasUsed","type":"uint256","indexed":false,"internalType":"uint256"}],"anonymous":false},{"type":"event","name":"UserOperationPrefundTooLow","inputs":[{"name":"userOpHash","type":"bytes32","indexed":true,"internalType":"bytes32"},{"name":"sender","type":"address","indexed":true,"internalType":"address"},{"name":"nonce","type":"uint256","indexed":false,"internalType":"uint256"}],"anonymous":false},{"type":"event","name":"UserOperationRevertReason","inputs":[{"name":"userOpHash","type":"bytes32","indexed":true,"internalType":"bytes32"},{"name":"sender","type":"address","indexed":true,"internalType":"address"},{"name":"nonce","type":"uint256","indexed":false,"internalType":"uint256"},{"name":"revertReason","type":"bytes","indexed":false,"internalType":"bytes"}],"anonymous":false},{"type":"event","name":"Withdrawn","inputs":[{"name":"account","type":"address","indexed":true,"internalType":"address"},{"name":"withdrawAddress","type":"address","indexed":false,"internalType":"address"},{"name":"amount","type":"uint256","indexed":false,"internalType":"uint256"}],"anonymous":false},{"type":"error","name":"CallPhaseReverted","inputs":[{"name":"reason","type":"bytes","internalType":"bytes"}]},{"type":"error","name":"DelegateAndRevert","inputs":[{"name":"success","type":"bool","internalType":"bool"},{"name":"ret","type":"bytes","internalType":"bytes"}]},{"type":"error","name":"FailedOp","inputs":[{"name":"opIndex","type":"uint256","internalType":"uint256"},{"name":"reason","type":"string","internalType":"string"}]},{"type":"error","name":"FailedOpWithRevert","inputs":[{"name":"opIndex","type":"uint256","internalType":"uint256"},{"name":"reason","type":"string","internalType":"string"},{"name":"inner","type":"bytes","internalType":"bytes"}]},{"type":"error","name":"PostOpReverted","inputs":[{"name":"returnData","type":"bytes","internalType":"bytes"}]},{"type":"error","name":"ReentrancyGuardReentrantCall","inputs":[]},{"type":"error","name":"SenderAddressResult","inputs":[{"name":"sender","type":"address","internalType":"address"}]},{"type":"error","name":"SignatureValidationFailed","inputs":[{"name":"aggregator","type":"address","internalType":"address"}]},{"type":"error","name":"innerCallResult","inputs":[{"name":"remainingGas","type":"uint256","internalType":"uint256"}]}],"bytecode":{"object":"0x60c0806040523461010057600160025561018c8181016001600160401b038111838210176100ec578291614d26833903905ff080156100e1576080523060a052610047610104565b5f815260208101905f825280602061005d610104565b5f81520152600380546001600160a01b03191690555160045551600555604051614c029081610124823960805181818161120801526149a1015260a051818181612c8501528181612fb20152818161300c015281816131f4015281816132a80152818161330101528181613411015281816134c50152818161351e015261362e0152f35b6040513d5f823e3d90fd5b634e487b7160e01b5f52604160045260245ffd5b5f80fd5b60408051919082016001600160401b038111838210176100ec5760405256fe60806040526004361015610022575b3615610018575f80fd5b610020612d7e565b005b5f3560e01c80630396cb60146101dc5780630bd28e3b146101d75780630da82661146101d25780631b2e01b8146101cd578063205c2878146101c8578063212eccc6146101c357806321e60b37146101be57806322cdde4c146101b957806335567e1a146101b457806344403473146101af5780635287ce12146101aa57806370a08231146101a5578063765e827f146101645780637da0c462146101a0578063850aaf621461019b5780639b249f6914610196578063acbe911e14610191578063aec321fb1461018c578063af32494314610187578063b760faf914610182578063bb9fe6bf1461017d578063c23a5cea14610178578063c3bce00914610173578063c579f76b1461016e578063d72f259314610169578063dbed18e014610164578063f7e426e81461015f5763fc7e286d0361000e57611a13565b6119da565b610e48565b6119ba565b61172b565b61170d565b6115ea565b6114c7565b61149d565b61142c565b6113d5565b6112a1565b6111a9565b611117565b610f0f565b610dd4565b610cc7565b610c82565b610ba6565b610b86565b610a8b565b610a40565b610809565b6107ac565b610689565b6103e5565b60203660031901126103cb5760043563ffffffff8116908181036103cb576103c67fa5ae833d0bb1dcd632d98a8b70973e8516812898e19bf27b70071ebc8dc52c01916103a861029a61028a610242336001600160a01b03165f525f60205260405f2090565b9661024e811515611a9e565b61027b60018901549161027461026b8463ffffffff9060781c1690565b63ffffffff1690565b1115611ae9565b60081c6001600160701b031690565b6001600160701b03349116611b6a565b946102a6861515611b77565b6102b96001600160701b03871115611bc2565b546102c26104e9565b908152600160208201526001600160701b038616604082015263ffffffff831660608201525f6080820152610307336001600160a01b03165f525f60205260405f2090565b81518155602082015160019091018054604084015160608501516080909501517fffffffffffffff0000000000000000000000000000000000000000000000000090921660ff941515949094169390931760089390931b6effffffffffffffffffffffffffff00169290921760789390931b72ffffffff000000000000000000000000000000169290921760989190911b65ffffffffffff60981b16179055565b6040805194855263ffffffff90911660208501523393918291820190565b0390a2005b5f80fd5b602435906001600160c01b03821682036103cb57565b346103cb5760203660031901126103cb576004356001600160c01b03811681036103cb5761042f90335f52600160205260405f20906001600160c01b03165f5260205260405f2090565b6104398154611c0d565b9055005b634e487b7160e01b5f52604160045260245ffd5b60a0810190811067ffffffffffffffff82111761046d57604052565b61043d565b6060810190811067ffffffffffffffff82111761046d57604052565b610140810190811067ffffffffffffffff82111761046d57604052565b6040810190811067ffffffffffffffff82111761046d57604052565b90601f8019910116810190811067ffffffffffffffff82111761046d57604052565b604051906104f860a0836104c7565b565b604051906104f8610140836104c7565b604051906104f8610100836104c7565b604051906104f86040836104c7565b604051906104f86060836104c7565b604051906104f8610120836104c7565b67ffffffffffffffff811161046d57601f01601f191660200190565b92919261057082610548565b9161057e60405193846104c7565b8294818452818301116103cb578281602093845f960137010152565b9080601f830112156103cb578160206105b593359101610564565b90565b6001600160a01b038116036103cb57565b35906104f8826105b8565b60431901906101c082126103cb576040516105ee81610451565b6101408193126103cb576106006104fa565b61060a60446105c9565b81526064356020820152608435604082015260a435606082015260c435608082015260e43560a08201526101043560c08201526106486101246105c9565b60e0820152610144356101008201526101643561012082015281526101843560208201526101a43560408201526101c435606082015260806101e435910152565b346103cb576102203660031901126103cb5760043567ffffffffffffffff81116103cb576106bb90369060040161059a565b3660231901906101c082126103cb57610140604051926106da84610451565b126103cb576106e76104fa565b6106f160246105c9565b815260443560208201526064356040820152608435606082015260a435608082015260c43560a082015260e43560c082015261072e6101046105c9565b60e0820152610124356101008201526101443561012082015282526101643560208301526101843560408301526101a43560608301526101c43560808301526101e4359067ffffffffffffffff82116103cb576040926107956107a093369060040161059a565b906102043592611c1b565b82519182526020820152f35b346103cb5760403660031901126103cb5760206108006004356107ce816105b8565b6001600160a01b036107de6103cf565b91165f526001835260405f20906001600160c01b03165f5260205260405f2090565b54604051908152f35b346103cb5760403660031901126103cb57600435610826816105b8565b602435335f525f60205260405f20918254908183116108aa575f8080856001600160a01b0382958961085b846100209a611e7b565b9055604080516001600160a01b03831681526020810185905233917fd1c19fbcd4551a5edfb66d43d2e337c04837afda3482b42bdf569a8fccdae5fb91a2165af16108a4611e9c565b50611ecb565b606460405162461bcd60e51b815260206004820152601960248201527f576974686472617720616d6f756e7420746f6f206c61726765000000000000006044820152fd5b9181601f840112156103cb5782359167ffffffffffffffff83116103cb576020808501948460051b0101116103cb57565b90816101209103126103cb5790565b60c06003198201126103cb5760043567ffffffffffffffff81116103cb5781610959916004016108ee565b929092916024359067ffffffffffffffff82116103cb5761097c9160040161091f565b90604435610989816105b8565b90606435906084359060a43590565b634e487b7160e01b5f52602160045260245ffd5b805180835260209291819084018484015e5f828201840152601f01601f1916010190565b6020815281516002811015610a3b57602082015260a0604080610a1f8160208701518582880152805160c08801526020810151151560e0880152015160606101008701526101208601906109ac565b9401518051606085015260208101516080850152015191015290565b610998565b346103cb57610a87610a7b610a6d610a573661092e565b9691949095610a67949394611f34565b50612e3b565b610a7681612ec8565b612f5a565b604051918291826109d0565b0390f35b346103cb576102003660031901126103cb5760243560043567ffffffffffffffff82116103cb57610ac3610a8792369060040161091f565b90610acd366105d4565b5f92815192610adc84836136f3565b610ae582611f75565b60208401526001600160a01b0360e0610b1f86610100604082015160608301510160808301510160a08301510160c0830151019101510290565b95015116610b46575b604080515f8082526020820188905291810191909152806060810188565b610b50945061396f565b90505f808080610b28565b60206003198201126103cb576004359067ffffffffffffffff82116103cb576105b59160040161091f565b346103cb576020610b9e610b9936610b5b565b611f75565b604051908152f35b346103cb5760403660031901126103cb576020600435610bc5816105b8565b6001600160a01b03610bd56103cf565b91165f5260018252610bfb8160405f20906001600160c01b03165f5260205260405f2090565b546040805192901b67ffffffffffffffff1916178152f35b9181601f840112156103cb5782359167ffffffffffffffff83116103cb57602083818601950101116103cb57565b9060606003198301126103cb57600435610c5a816105b8565b916024359067ffffffffffffffff82116103cb57610c7a91600401610c13565b909160443590565b346103cb575f8080610c9336610c41565b939181604094929451948592833781018381520393f1610cb1611e9c565b9015610cb957005b80519081156103cb57602001fd5b346103cb5760203660031901126103cb576001600160a01b03600435610cec816105b8565b5f6080604051610cfb81610451565b8281528260208201528260408201528260608201520152165f525f602052610a8760405f20610d8065ffffffffffff600160405193610d3985610451565b80548552015460ff8116151560208501526001600160701b038160081c16604085015263ffffffff8160781c16606085015260981c16608083019065ffffffffffff169052565b60405191829182919091608065ffffffffffff8160a0840195805185526020810151151560208601526001600160701b03604082015116604086015263ffffffff6060820151166060860152015116910152565b346103cb5760203660031901126103cb576001600160a01b03600435610df9816105b8565b165f525f602052602060405f2054604051908152f35b60406003198201126103cb576004359067ffffffffffffffff82116103cb57610e3a916004016108ee565b90916024356105b5816105b8565b346103cb57610e5636610e0f565b505050608460405162461bcd60e51b815260206004820152602760248201527f53484f554c44204e4f542042452043414c4c454420445552494e472053494d556044820152664c4154494f4e5360c81b6064820152fd5b61012060e06105b5936020845280516020850152602081015160408501526040810151606085015260608101516080850152608081015160a085015260a081015160c085015260c08101511515828501520151916101008082015201906109ac565b346103cb5760603660031901126103cb5760043567ffffffffffffffff81116103cb57610f4090369060040161091f565b60243590610f4d826105b8565b60443567ffffffffffffffff81116103cb57610f6d90369060040161059a565b90610f76612058565b5060028054146110ef57610a879260028055610f906121b8565b92610f9a83612ec8565b610fa484846128c3565b9091945a606088015188610fbb6060850185612278565b94905f600387116110e7575b7fffffffff0000000000000000000000000000000000000000000000000000000016638dd7712f60e01b036110cf57506110379450611032602083015191611024604051938492638dd7712f60e01b602085015260248401613b3f565b03601f1981018352826104c7565b611c1b565b9290965b5f946060966001600160a01b0381166110a4575b5050956080611089969701519761106461050a565b988952602089015260408801526060870152608086015260a0850152151560c0840152565b60e08201526110986001600255565b60405191829182610ead565b61108997505f92965090829182602083519301915af19560806110c5611e9c565b979591979661104f565b61103291506110df953691610564565b92909661103b565b508035610fc7565b7f3ee5aeb5000000000000000000000000000000000000000000000000000000005f5260045ffd5b346103cb5760403660031901126103cb576111336004356105b8565b60243567ffffffffffffffff81116103cb57611153903690600401610c13565b5050608460405162461bcd60e51b815260206004820152602760248201527f53484f554c44204e4f542042452043414c4c454420445552494e472053494d556044820152664c4154494f4e5360c81b6064820152fd5b346103cb5760203660031901126103cb5760043567ffffffffffffffff81116103cb5760206111df6111fb923690600401610c13565b906040519384928392632b870d1b60e11b84526004840161225c565b03815f6001600160a01b037f0000000000000000000000000000000000000000000000000000000000000000165af1801561129c576001600160a01b03915f9161126d575b507f6ca7b806000000000000000000000000000000000000000000000000000000005f521660045260245ffd5b61128f915060203d602011611295575b61128781836104c7565b810190612227565b5f611240565b503d61127d565b61226d565b346103cb57610a87610a7b6112b53661092e565b959490949391936122f8565b60406003198201126103cb5760043567ffffffffffffffff81116103cb57816112ec916004016108ee565b929092916024359067ffffffffffffffff82116103cb576105b59160040161091f565b6105b59060208152610100608061136881865161014060208701528051610160870152602081015161018087015260408101516101a087015260608101516101c0870152015160a06101e08601526102008501906109ac565b60208087015180516040870152015160608501529461139860408201518386019060208091805184520151910152565b6060810151805160c08601526020015160e0850152015191019080516001600160a01b031682526020908101518051828401520151604090910152565b346103cb576113e3366112c1565b91906113ed6123c5565b505f5b81811061140f57610a87611403856126fe565b6040519182918261130f565b80611425611420600193858761245b565b6126fe565b50016113f0565b346103cb5761143a366112c1565b9190611444612058565b506020905f5b81811061147757610a8761109886604051906114676020836104c7565b5f8252611472612058565b6120a6565b80611496611488600193858861245b565b6040519061146787836104c7565b500161144a565b60203660031901126103cb576100206004356114b8816105b8565b612483565b5f9103126103cb57565b346103cb575f3660031901126103cb57335f525f602052600160405f2001805463ffffffff8160781c16156115a65761152f61152161026b836115156115106115699660ff1690565b6124c4565b60781c63ffffffff1690565b65ffffffffffff421661250f565b82547fffffffffffffff000000000000ffffffffffffffffffffffffffffffffffff001665ffffffffffff60981b609883901b1617909255565b60405165ffffffffffff909116815233907ffa9b3c14cc825c412c9ed81b3ba365a5b459439403f18829e572ed53a4180f0a9080602081016103c6565b606460405162461bcd60e51b815260206004820152600a60248201527f6e6f74207374616b6564000000000000000000000000000000000000000000006044820152fd5b346103cb5760203660031901126103cb576100205f80808060043561160e816105b8565b6001600160a01b036001611632336001600160a01b03165f525f60205260405f2090565b01916116c083549361169865ffffffffffff61168461166a61165e896001600160701b039060081c1690565b6001600160701b031690565b9761167689151561252d565b60981c65ffffffffffff1690565b16611690811515612578565b4210156125c3565b80547fffffffffffffff000000000000000000000000000000000000000000000000ff169055565b604080516001600160a01b03831681526020810185905233917fb7c918e0e249f999e965cafeb6c664271b3f4317d296461500e71da39f0cbda391a2165af1611707611e9c565b5061260e565b346103cb57610a8761140361142036610b5b565b801515036103cb57565b346103cb576102203660031901126103cb5760043560243567ffffffffffffffff81116103cb5761176090369060040161091f565b9061176a366105d4565b610204359061177882611721565b5f935a82519361178885846136f3565b61179183611f75565b60208501526040850151956117dd6effffffffffffffffffffffffffffff8860c08901511760608901511760808901511760a08901511761010089015117610120890151171115612862565b61180886610100604082015160608301510160808301510160a08301510160c0830151019101510290565b906118168883888885613e8c565b9761183d61183961182e8a516001600160a01b031690565b60208b01519061401e565b1590565b611965575a850311611913576060926001600160a01b0361186960e05a9a01516001600160a01b031690565b161515908161190b575b506118d4575b509360806118b09460a06118ab95610a8799956118b799604087015260608601525a9003910135019101525a90611e7b565b6128ad565b6064900490565b604051938493846040919493926060820195825260208201520152565b819850610a879692508460a06118ab956118f989956118b79a6118b09a60809761396f565b9c90969a509498509550509450611879565b90505f611873565b60408051631101335b60e11b815260048101929092526024820152601e60448201527f41413236206f76657220766572696669636174696f6e4761734c696d69740000606482015280608481015b0390fd5b61196182604051918291631101335b60e11b835260048301608091815260406020820152601a60408201527f4141323520696e76616c6964206163636f756e74206e6f6e636500000000000060608201520190565b346103cb57610a87610a7b6119ce3661092e565b95949094939193612ace565b346103cb576119f46119eb36610c41565b92919091612c30565b90610a87604051928392151583526040602084015260408301906109ac565b346103cb5760203660031901126103cb576001600160a01b03600435611a38816105b8565b165f525f60205265ffffffffffff60405f2060018154910154908260405193849360a0850193855260ff8116151560208601526001600160701b03808260081c1616604086015263ffffffff808260781c1616606086015260981c161660808301520390f35b15611aa557565b606460405162461bcd60e51b815260206004820152601a60248201527f6d757374207370656369667920756e7374616b652064656c61790000000000006044820152fd5b15611af057565b606460405162461bcd60e51b815260206004820152601c60248201527f63616e6e6f7420646563726561736520756e7374616b652074696d65000000006044820152fd5b634e487b7160e01b5f52601160045260245ffd5b906113888201809211611b5757565b611b34565b9060018201809211611b5757565b91908201809211611b5757565b15611b7e57565b606460405162461bcd60e51b815260206004820152601260248201527f6e6f207374616b652073706563696669656400000000000000000000000000006044820152fd5b15611bc957565b606460405162461bcd60e51b815260206004820152600e60248201527f7374616b65206f766572666c6f770000000000000000000000000000000000006044820152fd5b5f198114611b575760010190565b93929093845190606082015181519081611df5575b505050505a9003608084015101925f935a92825193611c4e8561406c565b91611c6360e08701516001600160a01b031690565b6001600160a01b0381169081611d2e57505050611c8785516001600160a01b031690565b925b5a8203019460a06060820151910151019160808501928351870390818111611d19575b5050850294604085019384518781105f14611cef57505050611ceb939450611cd35f612db4565b5a9003905101905183611ce68295614194565b6140c6565b9190565b611ceb969295508780955060019450611d0a92910390613b56565b50611d145f612db4565b61412d565b9196916064919003600a020401945f80611cac565b94918051611d3e575b5050611c89565b90919850611d4b5f612db4565b5a9160a088015191813b156103cb578592835f80948e611d9d604051988997889687947f7c627b2100000000000000000000000000000000000000000000000000000000865202908660048601612dbe565b0393f19081611ddb575b50611dd057611961611db7612d87565b6040519182916365c8fd4d60e01b835260048301612df0565b5a9003965f80611d37565b80611de95f611def936104c7565b806114bd565b5f611da7565b5f80949360206001600160a01b0383965116910192f115611e19575f808080611c30565b611961611e24612d87565b6040519182917f462c71b20000000000000000000000000000000000000000000000000000000083526020600484015260248301906109ac565b600319810191908211611b5757565b5f19810191908211611b5757565b91908203918211611b5757565b60405190611e976020836104c7565b5f8252565b3d15611ec6573d90611ead82610548565b91611ebb60405193846104c7565b82523d5f602084013e565b606090565b15611ed257565b606460405162461bcd60e51b815260206004820152601260248201527f6661696c656420746f20776974686472617700000000000000000000000000006044820152fd5b60405190611f2382610472565b5f6040838281528260208201520152565b60405190611f4182610472565b815f8152604051611f5181610472565b5f81525f60208201526060604082015260208201526040611f70611f16565b910152565b6020810135612029611f8a6040840184612278565b90816040519182372091611024611fa46060860186612278565b90816040519182372060c086013560a08701356080880135611fd2611fcc60e08b018b612278565b90614bc1565b936040519889976001600160a01b0360208a019c35168c94919260e096939998979491996001600160a01b0361010088019b168752602087015260408601526060850152608084015260a083015260c08201520152565b519020604080516020810192835230918101919091524660608201526120528160808101611024565b51902090565b60405190610100820182811067ffffffffffffffff82111761046d57604052606060e0835f81525f60208201525f60408201525f838201525f60808201525f60a08201525f60c08201520152565b50905060028054146110ef576002805560806120c06121b8565b916120ca81612ec8565b6120d483826128c3565b929091905a6060870151876120ec6060850185612278565b94905f600387116121b0575b7fffffffff0000000000000000000000000000000000000000000000000000000016638dd7712f60e01b0361219857506121559450611032602083015191611024604051938492638dd7712f60e01b602085015260248401613b3f565b9490955b01519461216461050a565b958652602086015260408501526060840152608083015260a08201525f60c0820152606060e0820152906104f86001600255565b61103291506121a8953691610564565b949095612159565b5080356120f8565b604051906121c582610451565b5f6080836040516121d58161048e565b83815283602082015283604082015283606082015283838201528360a08201528360c08201528360e0820152836101008201528361012082015281528260208201528260408201528260608201520152565b908160209103126103cb57516105b5816105b8565b908060209392818452848401375f828201840152601f01601f1916010190565b9160206105b593818152019161223c565b6040513d5f823e3d90fd5b903590601e19813603018212156103cb570180359067ffffffffffffffff82116103cb576020019181360383136103cb57565b604051906122ba6020836104c7565b5f808352366020840137565b906122d082610548565b6122dd60405191826104c7565b82815280926122ee601f1991610548565b0190602036910137565b95949392919095612307611f34565b506123156060830183612278565b90501561234b576105b59661232991612e3b565b6123436123346121b8565b61233d83612ec8565b826128c3565b50505061326e565b5050505050505061235a6122ab565b6040519061236782610472565b5f82525f6020830152604082015260405161238181610472565b5f81525f60208201525f60408201526040519161239d83610472565b5f83526020830152604082015290565b604051906123ba826104ab565b5f6020838281520152565b604051906123d282610451565b816040516123df81610451565b5f81525f60208201525f60408201525f60608201526060608082015281526124056123ad565b60208201526124126123ad565b604082015261241f6123ad565b6060820152608060405191612433836104ab565b5f835261243e6123ad565b60208401520152565b634e487b7160e01b5f52603260045260245ffd5b919081101561247e5760051b8101359061011e19813603018212156103cb570190565b612447565b7f2da466a7b24304f47e87fa2e1e5a81b9831ce54fec19055ce277ca2f39ba42c460206001600160a01b036124b83485613b56565b936040519485521692a2565b156124cb57565b606460405162461bcd60e51b815260206004820152601160248201527f616c726561647920756e7374616b696e670000000000000000000000000000006044820152fd5b9065ffffffffffff8091169116019065ffffffffffff8211611b5757565b1561253457565b606460405162461bcd60e51b815260206004820152601460248201527f4e6f207374616b6520746f2077697468647261770000000000000000000000006044820152fd5b1561257f57565b606460405162461bcd60e51b815260206004820152601d60248201527f6d7573742063616c6c20756e6c6f636b5374616b6528292066697273740000006044820152fd5b156125ca57565b606460405162461bcd60e51b815260206004820152601b60248201527f5374616b65207769746864726177616c206973206e6f742064756500000000006044820152fd5b1561261557565b606460405162461bcd60e51b815260206004820152601860248201527f6661696c656420746f207769746864726177207374616b6500000000000000006044820152fd5b906014116103cb5790601490565b90929192836034116103cb5783116103cb57603401916033190190565b356bffffffffffffffffffffffff198116929190601482106126a4575050565b6bffffffffffffffffffffffff1960149290920360031b82901b16169150565b604051906126d1826104ab565b6003546001600160a01b031682526040516020836126ee836104ab565b6004548352600554828401520152565b6127066123c5565b5061270f6121b8565b9061271981612ec8565b61272382826128c3565b509190926127318385613b7b565b61274e61274960e0835101516001600160a01b031690565b613ca0565b9161277c61276861274984516001600160a01b0390511690565b916127716123ad565b506040810190612278565b90601482106128575761279e6127986127a49361274993612659565b90612684565b60601c90565b916001600160a01b0386169460808201519660606040840151930151926127c96104e9565b98895260208901526040880152606087015260808601526127e86126c4565b938015158061284c575b61281a575b506128006104e9565b948552602085015260408401526060830152608082015290565b90935061282681613ca0565b61284061283161051a565b6001600160a01b039093168352565b6020820152925f6127f7565b5060018114156127f2565b50506127a45f613ca0565b1561286957565b606460405162461bcd60e51b815260206004820152601860248201527f41413934206761732076616c756573206f766572666c6f7700000000000000006044820152fd5b90607382029180830460731490151715611b5757565b90915f915a938051916128d683826136f3565b6128df81611f75565b602083015260408301519561292b6effffffffffffffffffffffffffffff8860c08701511760608701511760808701511760a08701511761010087015117610120870151171115612862565b61295684610100604082015160608301510160808301510160a08301510160c0830151019101510290565b612963888286865f613e8c565b9761298661183961297b88516001600160a01b031690565b60208901519061401e565b612a7b575a830311612a28576060906001600160a01b036129b260e05a9801516001600160a01b031690565b16151580612a20575b6129ee575b6118ab9360a06105b59794879460809460406118b09a015260608601525a9003910135019101525a90611e7b565b965050928260808360a06105b597612a0e8b6118b0996118ab995f61396f565b9b9095985093509497505093506129c0565b5060016129bb565b604051631101335b60e11b8152806119615f60048301608091815260406020820152601e60408201527f41413236206f76657220766572696669636174696f6e4761734c696d6974000060608201520190565b604051631101335b60e11b8152806119615f60048301608091815260406020820152601a60408201527f4141323520696e76616c6964206163636f756e74206e6f6e636500000000000060608201520190565b95949392919095612add611f34565b506014612aed60e0840184612278565b905010612b28576105b596612b1a91610a67612b076121b8565b612b128151876136f3565b5a9086613d3a565b612b2381612ec8565b61348b565b50505050505050612b376122ab565b60405190612b4482610472565b5f82525f60208301526040820152612b5a610529565b5f81525f60208201525f6040820152612b71610529565b915f83526020830152604082015290565b6040906001600160a01b036105b59593168152816020820152019161223c565b90815181101561247e570160200190565b81601f820112156103cb57805190612bca82610548565b92612bd860405194856104c7565b828452602083830101116103cb57815f9260208093018386015e8301015290565b9190916040818403126103cb578051612c1181611721565b92602082015167ffffffffffffffff81116103cb576105b59201612bb3565b91925f936001600160a01b036060941691823b156103cb57612cae935f80946040518097819682957f850aaf620000000000000000000000000000000000000000000000000000000084526001600160a01b037f00000000000000000000000000000000000000000000000000000000000000001660048501612b82565b0393f19081612d6a575b50612d58575050612cc7611e9c565b906004825110612d5c57612ce3612cde8351611e5e565b6122c6565b60045b8351811015612d425780612d25612cff60019387612ba2565b517fff000000000000000000000000000000000000000000000000000000000000001690565b612d3b612d3183611e5e565b915f1a9185612ba2565b5301612ce6565b50612d5891925060208082518301019101612bf9565b9091565b9050612d666122ab565b5f91565b80611de95f612d78936104c7565b5f612cb8565b6104f833612483565b3d6108008111612dab575b604051906020818301016040528082525f602083013e90565b50610800612d92565b60031115610a3b57565b90949392946003811015610a3b57606092612de69183526080602084015260808301906109ac565b9460408201520152565b9060a06105b5925f815260606020820152601460608201527f4141353020706f73744f70207265766572746564000000000000000000000000608082015281604082015201906109ac565b5f5b828110612e4957505050565b600190612e546121b8565b612e5f82868661245b565b612e6881612ec8565b612e7282826128c3565b505050612e826060820182612278565b905015612eb757612e9b5f9291602084930151906141d7565b9082602083519301915af150612eaf611e9c565b505b01612e3d565b5050612eb1565b356105b5816105b8565b612efb90612ed96040820182612278565b91612ef3813591612ee9836105b8565b60e0810190612278565b939092614270565b8051612f045750565b61196190604051918291631101335b60e11b83525f60048401526040602484015260448301906109ac565b939291612f55906001600160a01b036040931686526060602087015260608601906109ac565b930152565b939094612f65611f34565b5082156131d457612fa592612f78611e88565b50915f612f875a886003614601565b5a906040519687928392631efc84dd60e31b84528c60048501612f2f565b0381836001600160a01b037f0000000000000000000000000000000000000000000000000000000000000000165af190811561129c575f945f926131b5575b508194809281156131935750506130019095929394955b85611b6a565b806001600160a01b037f000000000000000000000000000000000000000000000000000000000000000016965b846130398885611e7b565b10613164575a61304888611b48565b1161310b5791889391879695935f8c8b61307a61307161306b8861309a9f611b6a565b60011c90565b809a6003614601565b835a936040519e8f9586948593631efc84dd60e31b855260048501612f2f565b03925af198891561129c575f905f9a6130e4575b50156130cf575050506130c083611e6d565b95915b9394959192909261302e565b939650936130de919750611b5c565b946130c3565b90506131039199503d805f833e6130fb81836104c7565b810190612bf9565b98905f6130ae565b5095509395505050935061311d6122ab565b92613126610529565b935f85525f6020860152604085015261313d610529565b92835260208301526040820152613152610529565b60018152916020830152604082015290565b965096505091955050613186915061317a610529565b93845215156020840152565b6040820152612b5a610529565b965096505050945050506131866131a8610529565b5f81529215156020840152565b9094506131cc91503d805f833e6130fb81836104c7565b90935f612fe4565b6131e792505a5f612f875a886003614601565b0381836001600160a01b037f0000000000000000000000000000000000000000000000000000000000000000165af192831561129c575f945f9461324c575b50839461323581935a90611e7b565b948115613193575050613001909592939495612ffb565b9093506132649194503d805f833e6130fb81836104c7565b939093925f613226565b939094613279611f34565b5082156133f15761329b9261328c611e88565b50915f612f875a886001614601565b0381836001600160a01b037f0000000000000000000000000000000000000000000000000000000000000000165af190811561129c575f945f926133d2575b508194809281156131935750506132f690959293949585611b6a565b806001600160a01b037f000000000000000000000000000000000000000000000000000000000000000016965b8461332e8885611e7b565b10613164575a61333d88611b48565b1161310b5791889391879695935f8c8b61307a61336061306b886133699f611b6a565b809a6001614601565b03925af198891561129c575f905f9a6133b3575b501561339e5750505061338f83611e6d565b95915b93949591929092613323565b939650936133ad919750611b5c565b94613392565b90506133ca9199503d805f833e6130fb81836104c7565b98905f61337d565b9094506133e991503d805f833e6130fb81836104c7565b90935f6132da565b61340492505a5f612f875a886001614601565b0381836001600160a01b037f0000000000000000000000000000000000000000000000000000000000000000165af192831561129c575f945f94613469575b50839461345281935a90611e7b565b9481156131935750506132f6909592939495612ffb565b9093506134819194503d805f833e6130fb81836104c7565b939093925f613443565b939094613496611f34565b50821561360e576134b8926134a9611e88565b50915f612f875a886002614601565b0381836001600160a01b037f0000000000000000000000000000000000000000000000000000000000000000165af190811561129c575f945f926135ef575b5081948092811561319357505061351390959293949585611b6a565b806001600160a01b037f000000000000000000000000000000000000000000000000000000000000000016965b8461354b8885611e7b565b10613164575a61355a88611b48565b1161310b5791889391879695935f8c8b61307a61357d61306b886135869f611b6a565b809a6002614601565b03925af198891561129c575f905f9a6135d0575b50156135bb575050506135ac83611e6d565b95915b93949591929092613540565b939650936135ca919750611b5c565b946135af565b90506135e79199503d805f833e6130fb81836104c7565b98905f61359a565b90945061360691503d805f833e6130fb81836104c7565b90935f6134f7565b61362192505a5f612f875a886002614601565b0381836001600160a01b037f0000000000000000000000000000000000000000000000000000000000000000165af192831561129c575f945f94613686575b50839461366f81935a90611e7b565b948115613193575050613513909592939495612ffb565b90935061369e9194503d805f833e6130fb81836104c7565b939093925f613660565b156136af57565b606460405162461bcd60e51b815260206004820152601d60248201527f4141393320696e76616c6964207061796d6173746572416e64446174610000006044820152fd5b61378a9061371061370382612ebe565b6001600160a01b03168452565b6020810135602084015261373d6080820135906fffffffffffffffffffffffffffffffff8260801c921690565b6060850152604084015260a081013560c084015261377460c0820135906fffffffffffffffffffffffffffffffff8260801c921690565b61010085015261012084015260e0810190612278565b9081156137c6576137ae8260e0926137a960346104f8979610156136a8565b614842565b60a085015260808401526001600160a01b0316910152565b505060a0815f60e0819401528260808201520152565b91906040838203126103cb57825167ffffffffffffffff81116103cb57602091613807918501612bb3565b92015190565b9035601e19823603018112156103cb57016020813591019167ffffffffffffffff82116103cb5781360383136103cb57565b6105b59161385d81613850846105c9565b6001600160a01b03169052565b602082013560208201526138f36138e76138ae613893613880604087018761380d565b610120604088015261012087019161223c565b6138a0606087018761380d565b90868303606088015261223c565b6080850135608085015260a085013560a085015260c085013560c08501526138d960e086018661380d565b9085830360e087015261223c565b9261010081019061380d565b9161010081850391015261223c565b61391a6040929594939560608352606083019061383f565b9460208201520152565b60a0906105b59392815260606020820152600d60608201527f4141333320726576657274656400000000000000000000000000000000000000608082015281604082015201906109ac565b929390915a9281519061398c60e08301516001600160a01b031690565b916139a7836001600160a01b03165f525f60205260405f2090565b8054898110613aea576001600160a01b03602060805f97958d9795613a089d9e8a960390550151970151926040519a8b96879586937f52b7512c00000000000000000000000000000000000000000000000000000000855260048501613902565b03931686f193845f915f96613ac4575b50613a435785613a26612d87565b906119616040519283926365c8fd4d60e01b845260048401613924565b9491925a900311613a515750565b60408051631101335b60e11b815260048101929092526024820152602760448201527f41413336206f766572207061796d6173746572566572696669636174696f6e4760648201527f61734c696d697400000000000000000000000000000000000000000000000000608482015260a490fd5b909550613ae391503d805f833e613adb81836104c7565b8101906137dc565b945f613a18565b61196189604051918291631101335b60e11b835260048301608091815260406020820152601e60408201527f41413331207061796d6173746572206465706f73697420746f6f206c6f77000060608201520190565b929190612f5560209160408652604086019061383f565b6001600160a01b03165f525f60205260405f208054918201809211611b575781905590565b613b8c6001600160a01b039161487a565b9116613c5557613c0257613ba76001600160a01b039161487a565b5016613baf57565b604051631101335b60e11b8152806119615f60048301608091815260406020820152601460408201527f41413334207369676e6174757265206572726f7200000000000000000000000060608201520190565b604051631101335b60e11b8152806119615f60048301608091815260406020820152601760408201527f414132322065787069726564206f72206e6f742064756500000000000000000060608201520190565b6084604051631101335b60e11b81525f600482015260406024820152601460448201527f41413234207369676e6174757265206572726f720000000000000000000000006064820152fd5b906001600160a01b03613cb16123ad565b92165f525f60205263ffffffff600160405f2001546001600160701b038160081c16845260781c166020830152565b908160209103126103cb575190565b60a0906105b59392815260606020820152600d60608201527f4141323320726576657274656400000000000000000000000000000000000000608082015281604082015201906109ac565b6020613dbb9194939294855193613d8460e0613d5d87516001600160a01b031690565b96613d76613d6e6040870187612278565b908c5f61494b565b01516001600160a01b031690565b916001600160a01b035f9316159788613e51575b845f91015191604051968795869485936306608bdf60e21b855260048501613902565b03926001600160a01b03881690f15f9181613e20575b50613dfb57611961613de1612d87565b6040519182916365c8fd4d60e01b83525f60048401613cef565b92613e035750565b613e1d906001600160a01b03165f525f60205260405f2090565b50565b613e4391925060203d602011613e4a575b613e3b81836104c7565b810190613ce0565b905f613dd1565b503d613e31565b9250613e6d866001600160a01b03165f525f60205260405f2090565b548015613e8257505f84815b94915050613d98565b845f918203613e79565b94929193906020613f0191865193613ecb60e0613eb087516001600160a01b031690565b96613d768b8d613ec36040890189612278565b92909161494b565b916001600160a01b035f9316159889613fe757845f91015191604051968795869485936306608bdf60e21b855260048501613902565b03926001600160a01b03881690f15f9181613fc6575b50613f425785613f25612d87565b906119616040519283926365c8fd4d60e01b845260048401613cef565b949293613f4e57505050565b613f68906001600160a01b03165f525f60205260405f2090565b91825490818311613f795750039055565b60408051631101335b60e11b815260048101929092526024820152601760448201527f41413231206469646e2774207061792070726566756e640000000000000000006064820152608490fd5b613fe091925060203d602011613e4a57613e3b81836104c7565b905f613f17565b9250614003866001600160a01b03165f525f60205260405f2090565b548781111561401457505f92613d98565b845f918903613e79565b6001600160a01b03165f52600160205267ffffffffffffffff6140588260401c60405f20906001600160c01b03165f5260205260405f2090565b9182549261406584611c0d565b9055161490565b6101206101008201519101518082146140c2577f59e3bb5c9eacf8e7a9c3802366751badc68d4d97d3e35b1744045784c52f20dd54806140bc575048905b01808210156140b7575090565b905090565b906140aa565b5090565b9190917f49628fd1471006c1482da88028e9ce4dbb080b815c9b0344d39e5a8e6ec1419f608060208301519251946001600160a01b038651169460206001600160a01b0360e089015116970151916040519283525f602084015260408301526060820152a4565b9060807f49628fd1471006c1482da88028e9ce4dbb080b815c9b0344d39e5a8e6ec1419f9160208401519351956001600160a01b038751169560206001600160a01b0360e08a015116980151926040519384521515602084015260408301526060820152a4565b60208101519051907f67b4fa9642f42120bf031f3051d1824b0fe25627945b27b8a6a65d5761d5482e6020806001600160a01b03855116940151604051908152a3565b919082356141e4816105b8565b9260608101638dd7712f60e01b7fffffffff0000000000000000000000000000000000000000000000000000000061421c8385612278565b9060035f9211614267575b50160361425257506105b590611024604051938492638dd7712f60e01b602085015260248401613b3f565b6105b5925061426091612278565b3691610564565b9050355f614227565b50929192159081614325575b506142e8576014811015614295575b50506105b5611e88565b6014116103cb573560601c3b156142ad575f8061428b565b6040516142bb6040826104c7565b601b81527f41413330207061796d6173746572206e6f74206465706c6f7965640000000000602082015290565b50506040516142f86040826104c7565b601981527f41413230206163636f756e74206e6f74206465706c6f79656400000000000000602082015290565b90503b155f61427c565b919091610120818403126103cb57614345610538565b9261434f826105c9565b845260208201356020850152604082013567ffffffffffffffff81116103cb578161437b91840161059a565b6040850152606082013567ffffffffffffffff81116103cb57816143a091840161059a565b60608501526080820135608085015260a082013560a085015260c082013560c085015260e082013567ffffffffffffffff81116103cb57816143e391840161059a565b60e085015261010082013567ffffffffffffffff81116103cb57614407920161059a565b610100830152565b60041115610a3b57565b916020936fffffffffffffffffffffffffffffffff198092603497946bffffffffffffffffffffffff199060601b1686521660148501521660248301528051928391018483015e01015f815290565b80516001600160a01b031682526105b591602082015160208201526101006144e96144b96144a7604086015161012060408701526101208601906109ac565b606086015185820360608701526109ac565b6080850151608085015260a085015160a085015260c085015160c085015260e085015184820360e08601526109ac565b920151906101008184039101526109ac565b60806101a09161012081516145198682516001600160a01b03169052565b602081015160208701526040810151604087015260608101516060870152838101518487015260a081015160a087015260c081015160c087015261456d60e082015160e08801906001600160a01b03169052565b61010081015161010087015201516101208501526020810151610140850152604081015161016085015260608101516101808501520151910152565b6145d86145cd61020093969594965f84526102206020850152610220840190614468565b9560408301906144fb565b0152565b610200906145d86145cd5f949695968584526102206020850152610220840190614468565b6146096121b8565b614613368461432f565b61461c8361440f565b6002831461475d5761462d8361440f565b600383146146df5750508061464360019261440f565b1461468d5760405162461bcd60e51b815260206004820152600c60248201527f496e76616c6964206d6f646500000000000000000000000000000000000000006044820152606490fd5b611024916146a7826146a16105b594611f75565b906141d7565b9390916040519485937f4440347300000000000000000000000000000000000000000000000000000000602086015260248501612f2f565b9150926fffffffffffffffffffffffffffffffff61471d61471660806105b59601356fffffffffffffffffffffffffffffffff1690565b9260801b90565b91161760808201526110246040519384927fc579f76b000000000000000000000000000000000000000000000000000000006020850152602484016145dc565b915092611024906fffffffffffffffffffffffffffffffff19846147ea60e06105b597016147dc6147976147918386612278565b90614842565b9391905060609160e08b0196603488515111614820575b505060405196879460801b16906fffffffffffffffffffffffffffffffff198960801b169060208601614419565b03601f1981018452836104c7565b526040519485937f21e60b37000000000000000000000000000000000000000000000000000000006020860152602485016145a9565b61483a9293506142609161483391612278565b8091612667565b905f806147ae565b9091826014116103cb57813591836024116103cb576014810135936034116103cb5760609290921c92608090811c9260240135901c90565b801561494457614888611f16565b5065ffffffffffff8160a01c16908115614936575b614918906148ff6148f4604051946148b486610472565b6001600160a01b038416865265ffffffffffff602087019460d01c1684526148e86040870191829065ffffffffffff169052565b5165ffffffffffff1690565b65ffffffffffff1690565b421190811561491b575b5091516001600160a01b031690565b91565b5161492e915065ffffffffffff166148f4565b42105f614909565b65ffffffffffff915061489d565b505f905f90565b9290918161495a575b50505050565b8251516001600160a01b031693843b614b745760408451015160206040518092632b870d1b60e11b8252815f816149958a8a6004840161225c565b03926001600160a01b037f00000000000000000000000000000000000000000000000000000000000000001690f190811561129c575f91614b55575b506001600160a01b038116958615614b00576001600160a01b0316809603614aab573b15614a5e575061279e6127987fd51a9c61267aa6196961883ecf5ff2da6619c37dac0fa92122513fb32c032d2d93614a2b93612659565b602083810151935160e00151604080516001600160a01b039485168152939091169183019190915290a35f808080614954565b60408051631101335b60e11b815260048101929092526024820152602060448201527f4141313520696e6974436f6465206d757374206372656174652073656e6465726064820152608490fd5b61196182604051918291631101335b60e11b835260048301608091815260406020820152602060408201527f4141313420696e6974436f6465206d7573742072657475726e2073656e64657260608201520190565b61196183604051918291631101335b60e11b835260048301608091815260406020820152601b60408201527f4141313320696e6974436f6465206661696c6564206f72204f4f47000000000060608201520190565b614b6e915060203d6020116112955761128781836104c7565b5f6149d1565b60408051631101335b60e11b815260048101929092526024820152601f60448201527f414131302073656e64657220616c726561647920636f6e7374727563746564006064820152608490fd5b81604051918237209056fea26469706673582212207850c7bb6dd49f7060057a8f133345ac2c7d297cce4f42f8896691833fb58ab064736f6c634300081c003360808060405234601557610172908161001a8239f35b5f80fdfe6080600436101561000e575f80fd5b5f3560e01c63570e1a3614610021575f80fd5b34610138576020366003190112610138576004359067ffffffffffffffff821161013857366023830112156101385781600401359167ffffffffffffffff8311610138573660248483010111610138578260141161013857601319830167ffffffffffffffff811161010b57600b8401601f19908116603f011683019367ffffffffffffffff85118486101761010b5760245f9485600c819460209960405286845289840196603889018837830101525193013560601c5af15f519015610104575b60209073ffffffffffffffffffffffffffffffffffffffff60405191168152f35b505f6100e3565b7f4e487b71000000000000000000000000000000000000000000000000000000005f52604160045260245ffd5b5f80fdfea264697066735822122012f57f3bb8f7d8e87f6944ecfa57e5c2371bd663ad8ac7dd0c34968250eda08464736f6c634300081c0033","linkReferences":{}},"methodIdentifiers":{"_paymasterValidation(uint256,(address,uint256,bytes,bytes,bytes32,uint256,bytes32,bytes,bytes),((address,uint256,uint256,uint256,uint256,uint256,uint256,address,uint256,uint256),bytes32,uint256,uint256,uint256))":"21e60b37","_validatePrepayment(uint256,(address,uint256,bytes,bytes,bytes32,uint256,bytes32,bytes,bytes),((address,uint256,uint256,uint256,uint256,uint256,uint256,address,uint256,uint256),bytes32,uint256,uint256,uint256),bool)":"c579f76b","addStake(uint32)":"0396cb60","balanceOf(address)":"70a08231","binarySearchCallGas((address,uint256,bytes,bytes,bytes32,uint256,bytes32,bytes,bytes)[],(address,uint256,bytes,bytes,bytes32,uint256,bytes32,bytes,bytes),address,uint256,uint256,uint256)":"acbe911e","binarySearchPaymasterVerificationGas((address,uint256,bytes,bytes,bytes32,uint256,bytes32,bytes,bytes)[],(address,uint256,bytes,bytes,bytes32,uint256,bytes32,bytes,bytes),address,uint256,uint256,uint256)":"d72f2593","binarySearchVerificationGas((address,uint256,bytes,bytes,bytes32,uint256,bytes32,bytes,bytes)[],(address,uint256,bytes,bytes,bytes32,uint256,bytes32,bytes,bytes),address,uint256,uint256,uint256)":"212eccc6","delegateAndRevert(address,bytes)":"850aaf62","depositTo(address)":"b760faf9","deposits(address)":"fc7e286d","getDepositInfo(address)":"5287ce12","getNonce(address,uint192)":"35567e1a","getSenderAddress(bytes)":"9b249f69","getUserOpHash((address,uint256,bytes,bytes,bytes32,uint256,bytes32,bytes,bytes))":"22cdde4c","handleAggregatedOps(((address,uint256,bytes,bytes,bytes32,uint256,bytes32,bytes,bytes)[],address,bytes)[],address)":"dbed18e0","handleOps((address,uint256,bytes,bytes,bytes32,uint256,bytes32,bytes,bytes)[],address)":"765e827f","incrementNonce(uint192)":"0bd28e3b","innerHandleOp(bytes,((address,uint256,uint256,uint256,uint256,uint256,uint256,address,uint256,uint256),bytes32,uint256,uint256,uint256),bytes,uint256)":"0da82661","nonceSequenceNumber(address,uint192)":"1b2e01b8","simulateCall(address,bytes,uint256)":"f7e426e8","simulateCallAndRevert(address,bytes,uint256)":"44403473","simulateHandleOp((address,uint256,bytes,bytes,bytes32,uint256,bytes32,bytes,bytes)[],(address,uint256,bytes,bytes,bytes32,uint256,bytes32,bytes,bytes))":"af324943","simulateHandleOpSingle((address,uint256,bytes,bytes,bytes32,uint256,bytes32,bytes,bytes),address,bytes)":"7da0c462","simulateValidation((address,uint256,bytes,bytes,bytes32,uint256,bytes32,bytes,bytes))":"c3bce009","simulateValidation((address,uint256,bytes,bytes,bytes32,uint256,bytes32,bytes,bytes)[],(address,uint256,bytes,bytes,bytes32,uint256,bytes32,bytes,bytes))":"aec321fb","unlockStake()":"bb9fe6bf","withdrawStake(address)":"c23a5cea","withdrawTo(address,uint256)":"205c2878"},"id":186}