{"abi":[{"type":"constructor","inputs":[],"stateMutability":"nonpayable"},{"type":"function","name":"binarySearchCallGas","inputs":[{"name":"entryPointSimulation","type":"address","internalType":"address"},{"name":"entryPoint","type":"address","internalType":"address"},{"name":"queuedUserOps","type":"tuple[]","internalType":"struct PackedUserOperation[]","components":[{"name":"sender","type":"address","internalType":"address"},{"name":"nonce","type":"uint256","internalType":"uint256"},{"name":"initCode","type":"bytes","internalType":"bytes"},{"name":"callData","type":"bytes","internalType":"bytes"},{"name":"accountGasLimits","type":"bytes32","internalType":"bytes32"},{"name":"preVerificationGas","type":"uint256","internalType":"uint256"},{"name":"gasFees","type":"bytes32","internalType":"bytes32"},{"name":"paymasterAndData","type":"bytes","internalType":"bytes"},{"name":"signature","type":"bytes","internalType":"bytes"}]},{"name":"targetUserOp","type":"tuple","internalType":"struct PackedUserOperation","components":[{"name":"sender","type":"address","internalType":"address"},{"name":"nonce","type":"uint256","internalType":"uint256"},{"name":"initCode","type":"bytes","internalType":"bytes"},{"name":"callData","type":"bytes","internalType":"bytes"},{"name":"accountGasLimits","type":"bytes32","internalType":"bytes32"},{"name":"preVerificationGas","type":"uint256","internalType":"uint256"},{"name":"gasFees","type":"bytes32","internalType":"bytes32"},{"name":"paymasterAndData","type":"bytes","internalType":"bytes"},{"name":"signature","type":"bytes","internalType":"bytes"}]},{"name":"initialMinGas","type":"uint256","internalType":"uint256"},{"name":"toleranceDelta","type":"uint256","internalType":"uint256"},{"name":"gasAllowance","type":"uint256","internalType":"uint256"}],"outputs":[{"name":"","type":"tuple","internalType":"struct IEntryPointSimulations.BinarySearchResult","components":[{"name":"resultType","type":"uint8","internalType":"enum IEntryPointSimulations.BinarySearchResultType"},{"name":"successData","type":"tuple","internalType":"struct IEntryPointSimulations.BinarySearchSuccess","components":[{"name":"gasUsed","type":"uint256","internalType":"uint256"},{"name":"success","type":"bool","internalType":"bool"},{"name":"returnData","type":"bytes","internalType":"bytes"}]},{"name":"outOfGasData","type":"tuple","internalType":"struct IEntryPointSimulations.BinarySearchOutOfGas","components":[{"name":"optimalGas","type":"uint256","internalType":"uint256"},{"name":"minGas","type":"uint256","internalType":"uint256"},{"name":"maxGas","type":"uint256","internalType":"uint256"}]}]}],"stateMutability":"nonpayable"},{"type":"function","name":"binarySearchPaymasterVerificationGas","inputs":[{"name":"entryPointSimulation","type":"address","internalType":"address"},{"name":"entryPoint","type":"address","internalType":"address payable"},{"name":"queuedUserOps","type":"tuple[]","internalType":"struct PackedUserOperation[]","components":[{"name":"sender","type":"address","internalType":"address"},{"name":"nonce","type":"uint256","internalType":"uint256"},{"name":"initCode","type":"bytes","internalType":"bytes"},{"name":"callData","type":"bytes","internalType":"bytes"},{"name":"accountGasLimits","type":"bytes32","internalType":"bytes32"},{"name":"preVerificationGas","type":"uint256","internalType":"uint256"},{"name":"gasFees","type":"bytes32","internalType":"bytes32"},{"name":"paymasterAndData","type":"bytes","internalType":"bytes"},{"name":"signature","type":"bytes","internalType":"bytes"}]},{"name":"targetUserOp","type":"tuple","internalType":"struct PackedUserOperation","components":[{"name":"sender","type":"address","internalType":"address"},{"name":"nonce","type":"uint256","internalType":"uint256"},{"name":"initCode","type":"bytes","internalType":"bytes"},{"name":"callData","type":"bytes","internalType":"bytes"},{"name":"accountGasLimits","type":"bytes32","internalType":"bytes32"},{"name":"preVerificationGas","type":"uint256","internalType":"uint256"},{"name":"gasFees","type":"bytes32","internalType":"bytes32"},{"name":"paymasterAndData","type":"bytes","internalType":"bytes"},{"name":"signature","type":"bytes","internalType":"bytes"}]},{"name":"initialMinGas","type":"uint256","internalType":"uint256"},{"name":"toleranceDelta","type":"uint256","internalType":"uint256"},{"name":"gasAllowance","type":"uint256","internalType":"uint256"}],"outputs":[{"name":"","type":"tuple","internalType":"struct IEntryPointSimulations.BinarySearchResult","components":[{"name":"resultType","type":"uint8","internalType":"enum IEntryPointSimulations.BinarySearchResultType"},{"name":"successData","type":"tuple","internalType":"struct IEntryPointSimulations.BinarySearchSuccess","components":[{"name":"gasUsed","type":"uint256","internalType":"uint256"},{"name":"success","type":"bool","internalType":"bool"},{"name":"returnData","type":"bytes","internalType":"bytes"}]},{"name":"outOfGasData","type":"tuple","internalType":"struct IEntryPointSimulations.BinarySearchOutOfGas","components":[{"name":"optimalGas","type":"uint256","internalType":"uint256"},{"name":"minGas","type":"uint256","internalType":"uint256"},{"name":"maxGas","type":"uint256","internalType":"uint256"}]}]}],"stateMutability":"nonpayable"},{"type":"function","name":"binarySearchVerificationGas","inputs":[{"name":"entryPointSimulation","type":"address","internalType":"address"},{"name":"entryPoint","type":"address","internalType":"address payable"},{"name":"queuedUserOps","type":"tuple[]","internalType":"struct PackedUserOperation[]","components":[{"name":"sender","type":"address","internalType":"address"},{"name":"nonce","type":"uint256","internalType":"uint256"},{"name":"initCode","type":"bytes","internalType":"bytes"},{"name":"callData","type":"bytes","internalType":"bytes"},{"name":"accountGasLimits","type":"bytes32","internalType":"bytes32"},{"name":"preVerificationGas","type":"uint256","internalType":"uint256"},{"name":"gasFees","type":"bytes32","internalType":"bytes32"},{"name":"paymasterAndData","type":"bytes","internalType":"bytes"},{"name":"signature","type":"bytes","internalType":"bytes"}]},{"name":"targetUserOp","type":"tuple","internalType":"struct PackedUserOperation","components":[{"name":"sender","type":"address","internalType":"address"},{"name":"nonce","type":"uint256","internalType":"uint256"},{"name":"initCode","type":"bytes","internalType":"bytes"},{"name":"callData","type":"bytes","internalType":"bytes"},{"name":"accountGasLimits","type":"bytes32","internalType":"bytes32"},{"name":"preVerificationGas","type":"uint256","internalType":"uint256"},{"name":"gasFees","type":"bytes32","internalType":"bytes32"},{"name":"paymasterAndData","type":"bytes","internalType":"bytes"},{"name":"signature","type":"bytes","internalType":"bytes"}]},{"name":"initialMinGas","type":"uint256","internalType":"uint256"},{"name":"toleranceDelta","type":"uint256","internalType":"uint256"},{"name":"gasAllowance","type":"uint256","internalType":"uint256"}],"outputs":[{"name":"","type":"tuple","internalType":"struct IEntryPointSimulations.BinarySearchResult","components":[{"name":"resultType","type":"uint8","internalType":"enum IEntryPointSimulations.BinarySearchResultType"},{"name":"successData","type":"tuple","internalType":"struct IEntryPointSimulations.BinarySearchSuccess","components":[{"name":"gasUsed","type":"uint256","internalType":"uint256"},{"name":"success","type":"bool","internalType":"bool"},{"name":"returnData","type":"bytes","internalType":"bytes"}]},{"name":"outOfGasData","type":"tuple","internalType":"struct IEntryPointSimulations.BinarySearchOutOfGas","components":[{"name":"optimalGas","type":"uint256","internalType":"uint256"},{"name":"minGas","type":"uint256","internalType":"uint256"},{"name":"maxGas","type":"uint256","internalType":"uint256"}]}]}],"stateMutability":"nonpayable"},{"type":"function","name":"filterOps06","inputs":[{"name":"userOps","type":"tuple[]","internalType":"struct UserOperation[]","components":[{"name":"sender","type":"address","internalType":"address"},{"name":"nonce","type":"uint256","internalType":"uint256"},{"name":"initCode","type":"bytes","internalType":"bytes"},{"name":"callData","type":"bytes","internalType":"bytes"},{"name":"callGasLimit","type":"uint256","internalType":"uint256"},{"name":"verificationGasLimit","type":"uint256","internalType":"uint256"},{"name":"preVerificationGas","type":"uint256","internalType":"uint256"},{"name":"maxFeePerGas","type":"uint256","internalType":"uint256"},{"name":"maxPriorityFeePerGas","type":"uint256","internalType":"uint256"},{"name":"paymasterAndData","type":"bytes","internalType":"bytes"},{"name":"signature","type":"bytes","internalType":"bytes"}]},{"name":"beneficiary","type":"address","internalType":"address payable"},{"name":"entryPoint","type":"address","internalType":"contract IEntryPoint"}],"outputs":[{"name":"","type":"tuple","internalType":"struct PimlicoSimulations.FilterOpsResult","components":[{"name":"gasUsed","type":"uint256","internalType":"uint256"},{"name":"balanceChange","type":"uint256","internalType":"uint256"},{"name":"rejectedUserOps","type":"tuple[]","internalType":"struct PimlicoSimulations.RejectedUserOp[]","components":[{"name":"userOpHash","type":"bytes32","internalType":"bytes32"},{"name":"revertReason","type":"bytes","internalType":"bytes"}]}]}],"stateMutability":"nonpayable"},{"type":"function","name":"filterOps07","inputs":[{"name":"userOps","type":"tuple[]","internalType":"struct PackedUserOperation[]","components":[{"name":"sender","type":"address","internalType":"address"},{"name":"nonce","type":"uint256","internalType":"uint256"},{"name":"initCode","type":"bytes","internalType":"bytes"},{"name":"callData","type":"bytes","internalType":"bytes"},{"name":"accountGasLimits","type":"bytes32","internalType":"bytes32"},{"name":"preVerificationGas","type":"uint256","internalType":"uint256"},{"name":"gasFees","type":"bytes32","internalType":"bytes32"},{"name":"paymasterAndData","type":"bytes","internalType":"bytes"},{"name":"signature","type":"bytes","internalType":"bytes"}]},{"name":"beneficiary","type":"address","internalType":"address payable"},{"name":"entryPoint","type":"address","internalType":"contract IEntryPoint"}],"outputs":[{"name":"","type":"tuple","internalType":"struct PimlicoSimulations.FilterOpsResult","components":[{"name":"gasUsed","type":"uint256","internalType":"uint256"},{"name":"balanceChange","type":"uint256","internalType":"uint256"},{"name":"rejectedUserOps","type":"tuple[]","internalType":"struct PimlicoSimulations.RejectedUserOp[]","components":[{"name":"userOpHash","type":"bytes32","internalType":"bytes32"},{"name":"revertReason","type":"bytes","internalType":"bytes"}]}]}],"stateMutability":"nonpayable"},{"type":"function","name":"filterOps08","inputs":[{"name":"userOps","type":"tuple[]","internalType":"struct PackedUserOperation[]","components":[{"name":"sender","type":"address","internalType":"address"},{"name":"nonce","type":"uint256","internalType":"uint256"},{"name":"initCode","type":"bytes","internalType":"bytes"},{"name":"callData","type":"bytes","internalType":"bytes"},{"name":"accountGasLimits","type":"bytes32","internalType":"bytes32"},{"name":"preVerificationGas","type":"uint256","internalType":"uint256"},{"name":"gasFees","type":"bytes32","internalType":"bytes32"},{"name":"paymasterAndData","type":"bytes","internalType":"bytes"},{"name":"signature","type":"bytes","internalType":"bytes"}]},{"name":"beneficiary","type":"address","internalType":"address payable"},{"name":"entryPoint","type":"address","internalType":"contract IEntryPoint"}],"outputs":[{"name":"","type":"tuple","internalType":"struct PimlicoSimulations.FilterOpsResult","components":[{"name":"gasUsed","type":"uint256","internalType":"uint256"},{"name":"balanceChange","type":"uint256","internalType":"uint256"},{"name":"rejectedUserOps","type":"tuple[]","internalType":"struct PimlicoSimulations.RejectedUserOp[]","components":[{"name":"userOpHash","type":"bytes32","internalType":"bytes32"},{"name":"revertReason","type":"bytes","internalType":"bytes"}]}]}],"stateMutability":"nonpayable"},{"type":"function","name":"filterOps09","inputs":[{"name":"userOps","type":"tuple[]","internalType":"struct PackedUserOperation[]","components":[{"name":"sender","type":"address","internalType":"address"},{"name":"nonce","type":"uint256","internalType":"uint256"},{"name":"initCode","type":"bytes","internalType":"bytes"},{"name":"callData","type":"bytes","internalType":"bytes"},{"name":"accountGasLimits","type":"bytes32","internalType":"bytes32"},{"name":"preVerificationGas","type":"uint256","internalType":"uint256"},{"name":"gasFees","type":"bytes32","internalType":"bytes32"},{"name":"paymasterAndData","type":"bytes","internalType":"bytes"},{"name":"signature","type":"bytes","internalType":"bytes"}]},{"name":"beneficiary","type":"address","internalType":"address payable"},{"name":"entryPoint","type":"address","internalType":"contract IEntryPoint"}],"outputs":[{"name":"","type":"tuple","internalType":"struct PimlicoSimulations.FilterOpsResult","components":[{"name":"gasUsed","type":"uint256","internalType":"uint256"},{"name":"balanceChange","type":"uint256","internalType":"uint256"},{"name":"rejectedUserOps","type":"tuple[]","internalType":"struct PimlicoSimulations.RejectedUserOp[]","components":[{"name":"userOpHash","type":"bytes32","internalType":"bytes32"},{"name":"revertReason","type":"bytes","internalType":"bytes"}]}]}],"stateMutability":"nonpayable"},{"type":"function","name":"getBalances","inputs":[{"name":"addresses","type":"address[]","internalType":"address[]"},{"name":"tokens","type":"address[]","internalType":"address[]"}],"outputs":[{"name":"","type":"tuple[]","internalType":"struct PimlicoSimulations.AssetBalance[]","components":[{"name":"addr","type":"address","internalType":"address"},{"name":"token","type":"address","internalType":"address"},{"name":"amount","type":"uint256","internalType":"uint256"}]}],"stateMutability":"view"},{"type":"function","name":"simulateAndEstimateGas","inputs":[{"name":"entryPointSimulation","type":"address","internalType":"address"},{"name":"entryPoint","type":"address","internalType":"address payable"},{"name":"queuedUserOps","type":"tuple[]","internalType":"struct PackedUserOperation[]","components":[{"name":"sender","type":"address","internalType":"address"},{"name":"nonce","type":"uint256","internalType":"uint256"},{"name":"initCode","type":"bytes","internalType":"bytes"},{"name":"callData","type":"bytes","internalType":"bytes"},{"name":"accountGasLimits","type":"bytes32","internalType":"bytes32"},{"name":"preVerificationGas","type":"uint256","internalType":"uint256"},{"name":"gasFees","type":"bytes32","internalType":"bytes32"},{"name":"paymasterAndData","type":"bytes","internalType":"bytes"},{"name":"signature","type":"bytes","internalType":"bytes"}]},{"name":"targetUserOp","type":"tuple","internalType":"struct PackedUserOperation","components":[{"name":"sender","type":"address","internalType":"address"},{"name":"nonce","type":"uint256","internalType":"uint256"},{"name":"initCode","type":"bytes","internalType":"bytes"},{"name":"callData","type":"bytes","internalType":"bytes"},{"name":"accountGasLimits","type":"bytes32","internalType":"bytes32"},{"name":"preVerificationGas","type":"uint256","internalType":"uint256"},{"name":"gasFees","type":"bytes32","internalType":"bytes32"},{"name":"paymasterAndData","type":"bytes","internalType":"bytes"},{"name":"signature","type":"bytes","internalType":"bytes"}]},{"name":"initialMinGas","type":"uint256","internalType":"uint256"},{"name":"toleranceDelta","type":"uint256","internalType":"uint256"},{"name":"gasAllowance","type":"uint256","internalType":"uint256"}],"outputs":[{"name":"result","type":"tuple","internalType":"struct PimlicoSimulations.SimulateAndEstimateGasResult","components":[{"name":"simulationResult","type":"tuple","internalType":"struct IEntryPointSimulations.ExecutionResult","components":[{"name":"preOpGas","type":"uint256","internalType":"uint256"},{"name":"paid","type":"uint256","internalType":"uint256"},{"name":"accountValidationData","type":"uint256","internalType":"uint256"},{"name":"paymasterValidationData","type":"uint256","internalType":"uint256"},{"name":"paymasterVerificationGasLimit","type":"uint256","internalType":"uint256"},{"name":"paymasterPostOpGasLimit","type":"uint256","internalType":"uint256"},{"name":"targetSuccess","type":"bool","internalType":"bool"},{"name":"targetResult","type":"bytes","internalType":"bytes"}]},{"name":"verificationGasLimit","type":"tuple","internalType":"struct IEntryPointSimulations.BinarySearchResult","components":[{"name":"resultType","type":"uint8","internalType":"enum IEntryPointSimulations.BinarySearchResultType"},{"name":"successData","type":"tuple","internalType":"struct IEntryPointSimulations.BinarySearchSuccess","components":[{"name":"gasUsed","type":"uint256","internalType":"uint256"},{"name":"success","type":"bool","internalType":"bool"},{"name":"returnData","type":"bytes","internalType":"bytes"}]},{"name":"outOfGasData","type":"tuple","internalType":"struct IEntryPointSimulations.BinarySearchOutOfGas","components":[{"name":"optimalGas","type":"uint256","internalType":"uint256"},{"name":"minGas","type":"uint256","internalType":"uint256"},{"name":"maxGas","type":"uint256","internalType":"uint256"}]}]},{"name":"paymasterVerificationGasLimit","type":"tuple","internalType":"struct IEntryPointSimulations.BinarySearchResult","components":[{"name":"resultType","type":"uint8","internalType":"enum IEntryPointSimulations.BinarySearchResultType"},{"name":"successData","type":"tuple","internalType":"struct IEntryPointSimulations.BinarySearchSuccess","components":[{"name":"gasUsed","type":"uint256","internalType":"uint256"},{"name":"success","type":"bool","internalType":"bool"},{"name":"returnData","type":"bytes","internalType":"bytes"}]},{"name":"outOfGasData","type":"tuple","internalType":"struct IEntryPointSimulations.BinarySearchOutOfGas","components":[{"name":"optimalGas","type":"uint256","internalType":"uint256"},{"name":"minGas","type":"uint256","internalType":"uint256"},{"name":"maxGas","type":"uint256","internalType":"uint256"}]}]}]}],"stateMutability":"nonpayable"},{"type":"function","name":"simulateAssetChange06","inputs":[{"name":"userOp","type":"tuple","internalType":"struct UserOperation","components":[{"name":"sender","type":"address","internalType":"address"},{"name":"nonce","type":"uint256","internalType":"uint256"},{"name":"initCode","type":"bytes","internalType":"bytes"},{"name":"callData","type":"bytes","internalType":"bytes"},{"name":"callGasLimit","type":"uint256","internalType":"uint256"},{"name":"verificationGasLimit","type":"uint256","internalType":"uint256"},{"name":"preVerificationGas","type":"uint256","internalType":"uint256"},{"name":"maxFeePerGas","type":"uint256","internalType":"uint256"},{"name":"maxPriorityFeePerGas","type":"uint256","internalType":"uint256"},{"name":"paymasterAndData","type":"bytes","internalType":"bytes"},{"name":"signature","type":"bytes","internalType":"bytes"}]},{"name":"entryPoint","type":"address","internalType":"contract IEntryPoint"},{"name":"addresses","type":"address[]","internalType":"address[]"},{"name":"tokens","type":"address[]","internalType":"address[]"}],"outputs":[{"name":"","type":"tuple[]","internalType":"struct PimlicoSimulations.AssetChange[]","components":[{"name":"addr","type":"address","internalType":"address"},{"name":"token","type":"address","internalType":"address"},{"name":"balanceBefore","type":"uint256","internalType":"uint256"},{"name":"balanceAfter","type":"uint256","internalType":"uint256"}]}],"stateMutability":"nonpayable"},{"type":"function","name":"simulateAssetChange07","inputs":[{"name":"userOp","type":"tuple","internalType":"struct PackedUserOperation","components":[{"name":"sender","type":"address","internalType":"address"},{"name":"nonce","type":"uint256","internalType":"uint256"},{"name":"initCode","type":"bytes","internalType":"bytes"},{"name":"callData","type":"bytes","internalType":"bytes"},{"name":"accountGasLimits","type":"bytes32","internalType":"bytes32"},{"name":"preVerificationGas","type":"uint256","internalType":"uint256"},{"name":"gasFees","type":"bytes32","internalType":"bytes32"},{"name":"paymasterAndData","type":"bytes","internalType":"bytes"},{"name":"signature","type":"bytes","internalType":"bytes"}]},{"name":"entryPoint","type":"address","internalType":"contract IEntryPoint"},{"name":"entryPointSimulations","type":"address","internalType":"address"},{"name":"addresses","type":"address[]","internalType":"address[]"},{"name":"tokens","type":"address[]","internalType":"address[]"}],"outputs":[{"name":"","type":"tuple[]","internalType":"struct PimlicoSimulations.AssetChange[]","components":[{"name":"addr","type":"address","internalType":"address"},{"name":"token","type":"address","internalType":"address"},{"name":"balanceBefore","type":"uint256","internalType":"uint256"},{"name":"balanceAfter","type":"uint256","internalType":"uint256"}]}],"stateMutability":"nonpayable"},{"type":"function","name":"simulateAssetChange08","inputs":[{"name":"userOp","type":"tuple","internalType":"struct PackedUserOperation","components":[{"name":"sender","type":"address","internalType":"address"},{"name":"nonce","type":"uint256","internalType":"uint256"},{"name":"initCode","type":"bytes","internalType":"bytes"},{"name":"callData","type":"bytes","internalType":"bytes"},{"name":"accountGasLimits","type":"bytes32","internalType":"bytes32"},{"name":"preVerificationGas","type":"uint256","internalType":"uint256"},{"name":"gasFees","type":"bytes32","internalType":"bytes32"},{"name":"paymasterAndData","type":"bytes","internalType":"bytes"},{"name":"signature","type":"bytes","internalType":"bytes"}]},{"name":"entryPoint","type":"address","internalType":"contract IEntryPoint"},{"name":"entryPointSimulations","type":"address","internalType":"address"},{"name":"addresses","type":"address[]","internalType":"address[]"},{"name":"tokens","type":"address[]","internalType":"address[]"}],"outputs":[{"name":"","type":"tuple[]","internalType":"struct PimlicoSimulations.AssetChange[]","components":[{"name":"addr","type":"address","internalType":"address"},{"name":"token","type":"address","internalType":"address"},{"name":"balanceBefore","type":"uint256","internalType":"uint256"},{"name":"balanceAfter","type":"uint256","internalType":"uint256"}]}],"stateMutability":"nonpayable"},{"type":"function","name":"simulateEntryPointBulk","inputs":[{"name":"entryPointSimulation","type":"address","internalType":"address"},{"name":"entryPoint","type":"address","internalType":"address payable"},{"name":"data","type":"bytes[]","internalType":"bytes[]"}],"outputs":[{"name":"","type":"bytes[]","internalType":"bytes[]"}],"stateMutability":"nonpayable"},{"type":"function","name":"simulateHandleOp","inputs":[{"name":"entryPointSimulation","type":"address","internalType":"address"},{"name":"entryPoint","type":"address","internalType":"address payable"},{"name":"queuedUserOps","type":"tuple[]","internalType":"struct PackedUserOperation[]","components":[{"name":"sender","type":"address","internalType":"address"},{"name":"nonce","type":"uint256","internalType":"uint256"},{"name":"initCode","type":"bytes","internalType":"bytes"},{"name":"callData","type":"bytes","internalType":"bytes"},{"name":"accountGasLimits","type":"bytes32","internalType":"bytes32"},{"name":"preVerificationGas","type":"uint256","internalType":"uint256"},{"name":"gasFees","type":"bytes32","internalType":"bytes32"},{"name":"paymasterAndData","type":"bytes","internalType":"bytes"},{"name":"signature","type":"bytes","internalType":"bytes"}]},{"name":"targetUserOp","type":"tuple","internalType":"struct PackedUserOperation","components":[{"name":"sender","type":"address","internalType":"address"},{"name":"nonce","type":"uint256","internalType":"uint256"},{"name":"initCode","type":"bytes","internalType":"bytes"},{"name":"callData","type":"bytes","internalType":"bytes"},{"name":"accountGasLimits","type":"bytes32","internalType":"bytes32"},{"name":"preVerificationGas","type":"uint256","internalType":"uint256"},{"name":"gasFees","type":"bytes32","internalType":"bytes32"},{"name":"paymasterAndData","type":"bytes","internalType":"bytes"},{"name":"signature","type":"bytes","internalType":"bytes"}]}],"outputs":[{"name":"","type":"tuple","internalType":"struct IEntryPointSimulations.ExecutionResult","components":[{"name":"preOpGas","type":"uint256","internalType":"uint256"},{"name":"paid","type":"uint256","internalType":"uint256"},{"name":"accountValidationData","type":"uint256","internalType":"uint256"},{"name":"paymasterValidationData","type":"uint256","internalType":"uint256"},{"name":"paymasterVerificationGasLimit","type":"uint256","internalType":"uint256"},{"name":"paymasterPostOpGasLimit","type":"uint256","internalType":"uint256"},{"name":"targetSuccess","type":"bool","internalType":"bool"},{"name":"targetResult","type":"bytes","internalType":"bytes"}]}],"stateMutability":"nonpayable"},{"type":"function","name":"simulateValidation","inputs":[{"name":"entryPointSimulation","type":"address","internalType":"address"},{"name":"entryPoint","type":"address","internalType":"address payable"},{"name":"queuedUserOps","type":"tuple[]","internalType":"struct PackedUserOperation[]","components":[{"name":"sender","type":"address","internalType":"address"},{"name":"nonce","type":"uint256","internalType":"uint256"},{"name":"initCode","type":"bytes","internalType":"bytes"},{"name":"callData","type":"bytes","internalType":"bytes"},{"name":"accountGasLimits","type":"bytes32","internalType":"bytes32"},{"name":"preVerificationGas","type":"uint256","internalType":"uint256"},{"name":"gasFees","type":"bytes32","internalType":"bytes32"},{"name":"paymasterAndData","type":"bytes","internalType":"bytes"},{"name":"signature","type":"bytes","internalType":"bytes"}]},{"name":"targetUserOp","type":"tuple","internalType":"struct PackedUserOperation","components":[{"name":"sender","type":"address","internalType":"address"},{"name":"nonce","type":"uint256","internalType":"uint256"},{"name":"initCode","type":"bytes","internalType":"bytes"},{"name":"callData","type":"bytes","internalType":"bytes"},{"name":"accountGasLimits","type":"bytes32","internalType":"bytes32"},{"name":"preVerificationGas","type":"uint256","internalType":"uint256"},{"name":"gasFees","type":"bytes32","internalType":"bytes32"},{"name":"paymasterAndData","type":"bytes","internalType":"bytes"},{"name":"signature","type":"bytes","internalType":"bytes"}]}],"outputs":[{"name":"","type":"tuple","internalType":"struct IEntryPointSimulations.ValidationResult","components":[{"name":"returnInfo","type":"tuple","internalType":"struct IEntryPoint.ReturnInfo","components":[{"name":"preOpGas","type":"uint256","internalType":"uint256"},{"name":"prefund","type":"uint256","internalType":"uint256"},{"name":"accountValidationData","type":"uint256","internalType":"uint256"},{"name":"paymasterValidationData","type":"uint256","internalType":"uint256"},{"name":"paymasterContext","type":"bytes","internalType":"bytes"}]},{"name":"senderInfo","type":"tuple","internalType":"struct IStakeManager.StakeInfo","components":[{"name":"stake","type":"uint256","internalType":"uint256"},{"name":"unstakeDelaySec","type":"uint256","internalType":"uint256"}]},{"name":"factoryInfo","type":"tuple","internalType":"struct IStakeManager.StakeInfo","components":[{"name":"stake","type":"uint256","internalType":"uint256"},{"name":"unstakeDelaySec","type":"uint256","internalType":"uint256"}]},{"name":"paymasterInfo","type":"tuple","internalType":"struct IStakeManager.StakeInfo","components":[{"name":"stake","type":"uint256","internalType":"uint256"},{"name":"unstakeDelaySec","type":"uint256","internalType":"uint256"}]},{"name":"aggregatorInfo","type":"tuple","internalType":"struct IEntryPoint.AggregatorStakeInfo","components":[{"name":"aggregator","type":"address","internalType":"address"},{"name":"stakeInfo","type":"tuple","internalType":"struct IStakeManager.StakeInfo","components":[{"name":"stake","type":"uint256","internalType":"uint256"},{"name":"unstakeDelaySec","type":"uint256","internalType":"uint256"}]}]}]}],"stateMutability":"nonpayable"},{"type":"event","name":"PimlicoSimulationDeployed","inputs":[],"anonymous":false}],"bytecode":{"object":"0x608080604052346039577f20d4cb4d83077ae7f93cbc84f032f6918d99772c5bb321c4333007d83641ab7e5f80a161381c908161003e8239f35b5f80fdfe60c06040526004361015610011575f80fd5b5f5f3560e01c8063141eb033146120935780632e5a0a9314612024578063685f602614611c385780637134990314611b2757806382e542ed14611aca578063861d9d5914611a7057806390d81dfb1461185d578063959c4cb7146112955780639f2d378914611202578063a4968eab14610fcb578063b21b38c814610d2e578063de040de114610a23578063ef5bfc3714610763578063f1143043146106da5763fccb5ff6146100bf575f80fd5b346106d75760603660031901126106d7576004356001600160401b0381116106d5576100ef903690600401612478565b90608052906100fc6122a7565b906101056122bd565b9061010e6127d6565b50610117613018565b8051906801000000000000000082116106c15782548284558083106105cb575b50602090949394018280527f290decd9548b62a8d60345a988386fc84ba6bc95484008f6362f93160ef3e56383915b8383106105a757505050508092816001600160a01b038082951692166040945b8781106101c0576101bc87878781519261019f8461234d565b835260208301526101ae613258565b818301525191829182612618565b0390f35b85516101cc87826123bb565b60018152835b601f198801811061054357506101eb828a60805161350e565b6101208136031261053f5787519061020282612383565b61020b816122d3565b825260208101356020830152888101356001600160401b03811161053b57610236903690830161240e565b8983015260608101356001600160401b03811161053b5761025a903690830161240e565b60608301526080810135608083015260a081013560a083015260c081013560c083015260e08101356001600160401b03811161053b5761029d903690830161240e565b60e08301526101008101356001600160401b03811161053b576102c29136910161240e565b6101008201526102d182612781565b526102db81612781565b5084315a91843b1561046c578851907f765e827f000000000000000000000000000000000000000000000000000000008252604482018a600484015281518091526064830190602060648260051b86010193019189905b828210610470575050505086828082938b60248301520381838a5af19182610457575b5050610429575050610365612d22565b906103b16020610378838c60805161350e565b8951809381927f22cdde4c0000000000000000000000000000000000000000000000000000000083528460048401526024830190612891565b0381875afa90811561041f5785916103e9575b5087516001936103e3926103d783612332565b82526020820152613203565b01610186565b90506020813d8211610417575b81610403602093836123bb565b81010312610413575160016103c4565b5f80fd5b3d91506103f6565b88513d87823e3d90fd5b956104456001939761044b610451949b6104455a8b319e6131d5565b906131f6565b9a6131d5565b946103e3565b81610461916123bb565b61046c57855f610355565b8580fd5b909192936020989e9798808f9e9c9f610521909c9e999c6001946063198b820301875261010061050f6104df6104cd8d51956001600160a01b03875116865288870151898701526101208188015191870152610120860190612454565b60608601518582036060870152612454565b6080850151608085015260a085015160a085015260c085015160c085015260e085015184820360e0860152612454565b92015190610100818403910152612454565b9601920192019092919d97969d9c999b9c9a98959a610332565b8680fd5b8480fd5b60209088979598999293999694965161055b81612383565b89815289838201526060898201526060808201528960808201528960a08201528960c0820152606060e082015260606101008201528282860101520197919097969395969492946101d2565b60026020826105bc6001949a999a51866130ac565b01920192019190959495610166565b6001600160ff1b03811681036106ad576001600160ff1b03831683036106ad5783805260011b7f290decd9548b62a8d60345a988386fc84ba6bc95484008f6362f93160ef3e563018260011b7f290decd9548b62a8d60345a988386fc84ba6bc95484008f6362f93160ef3e563015b8181106106475750610137565b600290858155856001820161065c815461305e565b8061066b575b5050500161063a565b601f81116001146106815750555b855f80610662565b8183526020832061069d91601f0160051c810190600101613096565b8082528160208120915555610679565b602484634e487b7160e01b81526011600452fd5b602483634e487b7160e01b81526041600452fd5b505b80fd5b50346106d7576101bc61074f61074061073961072b6001600160a01b0361070036612703565b61070e97939496919761336e565b5060405197889363af32494360e01b6020860152602485016133aa565b03601f1981018652856123bb565b1690613531565b602080825183010191016133d0565b6040519182916020835260208301906126a4565b50346106d75760403660031901126106d7576004356001600160401b0381116106d557610794903690600401612478565b906024356001600160401b038111610a1f576107b4903690600401612478565b9081840293808504831481151715610a0b576107cf856123dc565b946107dd60405196876123bb565b8086526107ec601f19916123dc565b01865b8181106109f45750508590865b818110610872578688604051918291602083016020845282518091526020604085019301915b818110610830575050500390f35b9193509160206060600192604087516001600160a01b0381511683526001600160a01b0385820151168584015201516040820152019401910191849392610822565b6108856108808284896134ea565b6134fa565b6001600160a01b038116895b8781106108a3575050506001016107fc565b909192939473eeeeeeeeeeeeeeeeeeeeeeeeeeeeeeeeeeeeeeee6001600160a01b036108d3610880858c8c6134ea565b16036109535783315b6108ea610880848b8b6134ea565b906001600160a01b03604051926109008461234d565b8684521660208301526040820152815f19811461093f57828c9897969594926109316001958661093895019b6127a2565b528c6127a2565b5001610891565b60248d634e487b7160e01b81526011600452fd5b602460206001600160a01b0361096d610880868d8d6134ea565b16604051928380927f70a082310000000000000000000000000000000000000000000000000000000082528860048301525afa9081156109e9578c916109b4575b506108dc565b90506020813d82116109e1575b816109ce602093836123bb565b810103126109dd57515f6109ae565b8b80fd5b3d91506109c1565b6040513d8e823e3d90fd5b6020906109ff6127f5565b82828a010152016107ef565b602486634e487b7160e01b81526011600452fd5b8380fd5b50346106d757610b3061073961072b6001600160a01b03610a4336612703565b604097939496919751610a5581612368565b604051610a6181612368565b8b81528b60208201528b60408201528b6060820152606060808201528152604051610a8b81612332565b5f81525f60208201526020820152604051610aa581612332565b5f81525f60208201526040820152604051610abf81612332565b5f81525f60208201526060820152608060405191610adc83612332565b8c8352604051610aeb81612332565b5f81525f6020820152602084015201526040519788937faec321fb000000000000000000000000000000000000000000000000000000006020860152602485016133aa565b805181016020810191602081830312610a1f576020810151906001600160401b03821161053f570192838203601f1981019290610140136106d55760405190610b7882612368565b60208601516001600160401b038111610a1f578601602081019160a091900312610d2a5760405190610ba982612368565b805182526020810151602083015260408101516040830152606081015160608301526080810151906001600160401b03821161053f57610beb91879101612a0b565b60808201528152610bff84604087016134c2565b9360208201948552610c1481608088016134c2565b92604083019384526060610c2b8360c08a016134c2565b8482019081529560bf1901126106d7575094602080959481809581610cd460808298610c796101409e6101206040519b610c648d612332565b610c716101008201612b37565b8d52016134c2565b848a01528181019889526040519d848f9e928f938452519201528c61016082519101528c610180858301519101528c6101a060408301519101528c6101c06060830151910152015160a06101e08d01526102008c0190612454565b9851805160408c0152015160608a015251805160808a0152015160a088015251805160c0880152015160e0860152516001600160a01b038151166101008601520151805161012085015201516101408301520390f35b8280fd5b50346106d75760a03660031901126106d7576004356001600160401b0381116106d55761012060031982360301126106d557610d686122a7565b610d706122bd565b906064356001600160401b03811161053f57610d90903690600401612478565b6084949194356001600160401b03811161053b57610db2903690600401612478565b60405163ef5bfc3760e01b81529691888880610dd48585898960048601612c41565b0381305afa978815610fc057898099610f69575b5050610e789461072b610e909895610e386001600160a01b0396610e2a6107409b976107399760405195869463ef5bfc3760e01b602087015260248601612c41565b03601f1981018352826123bb565b6040519788937f7da0c462000000000000000000000000000000000000000000000000000000006020860152606060248601526084850190600401612891565b30604485015283810360231901606485015290612454565b60c081015115610f5d5760e0610eb191015160208082518301019101612b4b565b610ebb8251612d9e565b925b8251811015610f4f57806001600160a01b03610edb600193866127a2565b5151166001600160a01b036020610ef284886127a2565b510151166040610f0284886127a2565b5101516040610f1185886127a2565b5101519160405193610f22856122e7565b8452602084015260408301526060820152610f3d82876127a2565b52610f4881866127a2565b5001610ebd565b604051806101bc86826125ab565b60e00151602081519101fd5b610739929950610e909895610e386001600160a01b0396610e2a6107409b97610fab610e789c9761072b973d8091833e610fa381836123bb565b810190612b4b565b9e9750979b5050965050959850509489610de8565b6040513d8b823e3d90fd5b50346106d757610fda366124a8565b90604097929796939594965197610ff08961234d565b610ff861336e565b89526020890196611007612813565b885260408a0198611016612813565b8a52611053610740826110438b610e2a8760405194859363af32494360e01b6020860152602485016133aa565b6001600160a01b038a1689613531565b8b52878c88886110958989898989604051998a9889987f2e5a0a93000000000000000000000000000000000000000000000000000000008a5260048a01613470565b038183305af19081156111f7578d916111dd575b50895260e0820135601e19833603018112156111d55782018035906001600160401b0382116111d95760208236039101136111d55760141115611135575b61110f8b6101bc8c6111228d60405195869560208752516060602088015260808701906126a4565b9051858203601f19016040870152612532565b9051838203601f19016060850152612532565b9161117493918c97969593604051998a9889987f9f2d3789000000000000000000000000000000000000000000000000000000008a5260048a01613470565b038183305af19081156111ca5791611122916101bc94938761110f98926111a7575b5050835291925f80808080806110e7565b6111c392503d8091833e6111bb81836123bb565b810190612a51565b5f80611196565b6040513d87823e3d90fd5b8c80fd5b8d80fd5b6111f191503d808f833e6111bb81836123bb565b5f6110a9565b6040513d8f823e3d90fd5b50346106d7576101bc61128161127261072b6107396001600160a01b03611228366124a8565b92958097999661123c9b959b939293612813565b506040519b8c977fd72f25930000000000000000000000000000000000000000000000000000000060208a0152602489016129b4565b60208082518301019101612a51565b604051918291602083526020830190612532565b50346106d75760603660031901126106d7576004356001600160401b0381116106d5576112c6903690600401612478565b9060a052906112d36122a7565b906112dc6122bd565b906112e56127d6565b506112ee613018565b8051906801000000000000000082116106c157825482845580831061177b575b50602090949394018280527f290decd9548b62a8d60345a988386fc84ba6bc95484008f6362f93160ef3e56383915b83831061175757505050508092816001600160a01b038082951692166040945b878110611376576101bc87878781519261019f8461234d565b855161138287826123bb565b60018152835b601f19880181106116e557506113a1828a60a0516131b2565b6101608136031261053f578751906113b882612316565b6113c1816122d3565b825260208101356020830152888101356001600160401b03811161053b576113ec903690830161240e565b8983015260608101356001600160401b03811161053b57611410903690830161240e565b60608301526080810135608083015260a081013560a083015260c081013560c083015260e081013560e08301526101008101356101008301526101208101356001600160401b03811161053b5761146a903690830161240e565b6101208301526101408101356001600160401b03811161053b576114909136910161240e565b61014082015261149f82612781565b526114a981612781565b5084315a91843b1561046c578851907f1fad948c000000000000000000000000000000000000000000000000000000008252604482018a600484015281518091526064830190602060648260051b86010193019189905b828210611614575050505086828082938b60248301520381838a5af191826115ff575b50506115dd575050611533612d22565b9061157f6020611546838c60a0516131b2565b8951809381927fa61935310000000000000000000000000000000000000000000000000000000083528460048401526024830190612c68565b0381875afa90811561041f5785916115ab575b5087516001936115a5926103d783612332565b0161135d565b90506020813d82116115d5575b816115c5602093836123bb565b8101031261041357516001611592565b3d91506115b8565b956104456001939761044b6115f9949b6104455a8b319e6131d5565b946115a5565b81611609916123bb565b61046c57855f611523565b909192936020989e9798808f9e9c9f6116cb909c9e999c6001946063198b82030187526101406116b96116716104cd8d51956001600160a01b03875116865288870151898701526101608188015191870152610160860190612454565b6080850151608085015260a085015160a085015260c085015160c085015260e085015160e0850152610100850151610100850152610120850151848203610120860152612454565b92015190610140818403910152612454565b9601920192019092919d97969d9c999b9c9a98959a611500565b6020908897959899929399969496516116fd81612316565b89815289838201526060898201526060808201528960808201528960a08201528960c08201528960e08201528961010082015260606101208201526060610140820152828286010152019791909796939596949294611388565b600260208261176c6001949a999a51866130ac565b0192019201919095949561133d565b6001600160ff1b03811681036106ad576001600160ff1b03831683036106ad5783805260011b7f290decd9548b62a8d60345a988386fc84ba6bc95484008f6362f93160ef3e563018260011b7f290decd9548b62a8d60345a988386fc84ba6bc95484008f6362f93160ef3e563015b8181106117f7575061130e565b600290858155856001820161180c815461305e565b8061181b575b505050016117ea565b601f81116001146118315750555b855f80611812565b8183526020832061184d91601f0160051c810190600101613096565b8082528160208120915555611829565b50346106d75760a03660031901126106d7576004356001600160401b0381116106d55761012060031982360301126106d557816118986122a7565b6118a06122bd565b906064356001600160401b038111610a1f576118c0903690600401612478565b9092608435936001600160401b03851161046c57611956600494611968946001600160a01b03936118f660a09936908a01612478565b959096816119386040519e8f9d8e9d8e7fb21b38c8000000000000000000000000000000000000000000000000000000008152015260a48d0190600401612891565b951660248b0152166044890152878303600319016064890152612c00565b84810360031901608486015291612c00565b038183305af1908115611a6557829161198a575b604051806101bc84826125ab565b90503d8083833e61199b81836123bb565b810190602081830312610d2a578051906001600160401b038211610a1f570181601f82011215610d2a578051926119d1846123dc565b926119df60405194856123bb565b84845260208085019560071b84010192818411610d2a57602001945b838610611a1157505050506101bc91505f61197c565b608086830312610d2a576020608091604051611a2c816122e7565b611a3589612b37565b8152611a42838a01612b37565b8382015260408901516040820152606089015160608201528152019501946119fb565b6040513d84823e3d90fd5b50346106d75760603660031901126106d757600435906001600160401b0382116106d7576101bc611abe611aa73660048601612478565b611aaf6122a7565b90611ab86122bd565b92612e05565b60405191829182612618565b50346106d75760603660031901126106d7576004356001600160401b0381116106d557611afb903690600401612478565b611b036122a7565b91604435936001600160a01b03851685036106d7576101bc611abe86868686612e05565b50346106d75760e03660031901126106d757611b41612291565b611b496122a7565b906044356001600160401b038111610a1f57611b69903690600401612478565b9093606435906001600160401b0382116106d75761012060031983360301126106d7576101bc611281611272888888611c3389611bfe8a611ba8612813565b50611be96040519788947facbe911e00000000000000000000000000000000000000000000000000000000602087015260c0602487015260e486019161294e565b83810360231901604485015290600401612891565b6001600160a01b0385166064830152608435608483015260a43560a483015260c43560c483015203601f1981018552846123bb565b613531565b5034610413576080366003190112610413576004356001600160401b03811161041357610160600319823603011261041357611c726122a7565b906044356001600160401b03811161041357611c92903690600401612478565b9190926064356001600160401b03811161041357611cb4903690600401612478565b60405163ef5bfc3760e01b815295915f8780611cd685858b8960048601612c41565b0381305afa968715612019575f97611fe6575b509161072b611d18926001600160a01b03959460405198899463ef5bfc3760e01b602087015260248601612c41565b1691823b1561041357611d8492611d6c5f8094604051968795869485937fd6383f94000000000000000000000000000000000000000000000000000000008552606060048601526064850190600401612c68565b30602485015283810360031901604485015290612454565b03925af19081611fd1575b50611f8d57611d9c612d22565b600481511115611f49576001600160e01b0319611dc0611dbb8361373a565b612d51565b167f220266b6000000000000000000000000000000000000000000000000000000008114611f40577f462c71b200000000000000000000000000000000000000000000000000000000148015611f39575b611f31578051611e20916137b5565b8051810160c082820312610a1f57611e3a60608301612d8b565b50611e4760808301612d8b565b50611e5460a083016129fe565b9160c0810151916001600160401b03831161046c57611e7a926020809201920101612a0b565b9015611f315780602080611e9393518301019101612b4b565b611e9d8251612d9e565b925b8251811015610f4f57806001600160a01b03611ebd600193866127a2565b5151166001600160a01b036020611ed484886127a2565b510151166040611ee484886127a2565b5101516040611ef385886127a2565b5101519160405193611f04856122e7565b8452602084015260408301526060820152611f1f82876127a2565b52611f2a81866127a2565b5001611e9f565b602081519101fd5b5082611e11565b50602081519101fd5b606460405162461bcd60e51b815260206004820152601d60248201527f556e657870656374656420726576657274206461746120666f726d61740000006044820152fd5b606460405162461bcd60e51b815260206004820152601c60248201527f73696d756c61746548616e646c654f70206d75737420726576657274000000006044820152fd5b611fde9193505f906123bb565b5f915f611d8f565b6001600160a01b039493919750611d189261200d61072b923d805f833e610fa381836123bb565b98929495509250611ce9565b6040513d5f823e3d90fd5b34610413576101bc61128161127261072b6107396001600160a01b03612049366124a8565b92958097999661205d9b959b939293612813565b506040519b8c977f212eccc60000000000000000000000000000000000000000000000000000000060208a0152602489016129b4565b34610413576060366003190112610413576120ac612291565b6120b46122a7565b6044356001600160401b03811161041357366023820112156104135780600401356120de816123dc565b916120ec60405193846123bb565b8183526024602084019260051b820101903682116104135760248101925b8284106122625750505050805192612121846123dc565b9361212f60405195866123bb565b80855261213e601f19916123dc565b015f5b8181106122515750506001600160a01b035f9316925b82518110156121ea5760019060605f8061217184886127a2565b51604051906121a482612196602082019363428557b160e11b85528b602484016127b6565b03601f1981018452836123bb565b828a5a935193f1156121cd575b6121bb82886127a2565b526121c681876127a2565b5001612157565b503d604051906020818301016040528082525f602083013e6121b1565b846040518091602082016020835281518091526040830190602060408260051b8601019301915f905b82821061222257505050500390f35b919360019193955060206122418192603f198a82030186528851612454565b9601920192018594939192612213565b806060602080938901015201612141565b83356001600160401b0381116104135760209161228683926024369187010161240e565b81520193019261210a565b600435906001600160a01b038216820361041357565b602435906001600160a01b038216820361041357565b604435906001600160a01b038216820361041357565b35906001600160a01b038216820361041357565b608081019081106001600160401b0382111761230257604052565b634e487b7160e01b5f52604160045260245ffd5b61016081019081106001600160401b0382111761230257604052565b604081019081106001600160401b0382111761230257604052565b606081019081106001600160401b0382111761230257604052565b60a081019081106001600160401b0382111761230257604052565b61012081019081106001600160401b0382111761230257604052565b61010081019081106001600160401b0382111761230257604052565b90601f801991011681019081106001600160401b0382111761230257604052565b6001600160401b0381116123025760051b60200190565b6001600160401b03811161230257601f01601f191660200190565b81601f8201121561041357803590612425826123f3565b9261243360405194856123bb565b8284526020838301011161041357815f926020809301838601378301015290565b805180835260209291819084018484015e5f828201840152601f01601f1916010190565b9181601f84011215610413578235916001600160401b038311610413576020808501948460051b01011161041357565b60e0600319820112610413576004356001600160a01b038116810361041357916024356001600160a01b038116810361041357916044356001600160401b03811161041357816124fa91600401612478565b92909291606435906001600160401b0382116104135761012090829003600319011261041357600401906084359060a4359060c43590565b9081516002811015612597578152608060408061257c81602087015160a06020880152805160a08801526020810151151560c08801520151606060e0870152610100860190612454565b94015180518285015260208101516060850152015191015290565b634e487b7160e01b5f52602160045260245ffd5b60206040818301928281528451809452019201905f5b8181106125ce5750505090565b90919260206080600192606087516001600160a01b0381511683526001600160a01b03858201511685840152604081015160408401520151606082015201940191019190916125c1565b602081526040608082019280516020840152602081015182840152015191606080830152825180915260a0820191602060a08360051b8301019401925f915b83831061266657505050505090565b9091929394602080612695600193609f198682030187526040838b518051845201519181858201520190612454565b97019301930191939290612657565b9061010060e061270093805184526020810151602085015260408101516040850152606081015160608501526080810151608085015260a081015160a085015260c0810151151560c08501520151918160e08201520190612454565b90565b6080600319820112610413576004356001600160a01b038116810361041357916024356001600160a01b038116810361041357916044356001600160401b038111610413578161275591600401612478565b92909291606435906001600160401b038211610413576101209082900360031901126104135760040190565b80511561278e5760200190565b634e487b7160e01b5f52603260045260245ffd5b805182101561278e5760209160051b010190565b6040906001600160a01b0361270094931681528160208201520190612454565b604051906127e38261234d565b60606040835f81525f60208201520152565b604051906128028261234d565b5f6040838281528260208201520152565b604051906128208261234d565b815f815261282c6127d6565b6020820152604061283b6127f5565b910152565b9035601e19823603018112156104135701602081359101916001600160401b03821161041357813603831361041357565b908060209392818452848401375f828201840152601f01601f1916010190565b612700916001600160a01b036128a6836122d3565b1681526020820135602082015261293f6129336128fa6128df6128cc6040870187612840565b6101206040880152610120870191612871565b6128ec6060870187612840565b908683036060880152612871565b6080850135608085015260a085013560a085015260c085013560c085015261292560e0860186612840565b9085830360e0870152612871565b92610100810190612840565b91610100818503910152612871565b90602083828152019060208160051b85010193835f915b8383106129755750505050505090565b909192939495601f19828203018652863561011e19843603018112156104135760206129a660019386839401612891565b980196019493019190612965565b93979695926129e9906129db6001600160a01b039360a0989560c0895260c089019161294e565b908682036020880152612891565b97166040840152606083015260808201520152565b5190811515820361041357565b81601f8201121561041357805190612a22826123f3565b92612a3060405194856123bb565b8284526020838301011161041357815f9260208093018386015e8301015290565b602081830312610413578051906001600160401b03821161041357018082039160a083126104135760405192612a868461234d565b8251600281101561041357845260208301516001600160401b0381116104135783016060818403126104135760405190612abf8261234d565b80518252612acf602082016129fe565b60208301526040810151936001600160401b03851161041357606094612af59201612a0b565b60408201526020850152603f19011261041357608060405191612b178361234d565b604081015183526060810151602084015201516040820152604082015290565b51906001600160a01b038216820361041357565b602081830312610413578051906001600160401b038211610413570181601f8201121561041357805190612b7e826123dc565b92612b8c60405194856123bb565b8284526020606081860194028301019181831161041357602001925b828410612bb6575050505090565b606084830312610413576020606091604051612bd18161234d565b612bda87612b37565b8152612be7838801612b37565b8382015260408701516040820152815201930192612ba8565b916020908281520191905f5b818110612c195750505090565b9091926020806001926001600160a01b03612c33886122d3565b168152019401929101612c0c565b9290612c5a906127009593604086526040860191612c00565b926020818503910152612c00565b612700916001600160a01b03612c7d836122d3565b16815260208201356020820152612d13612d07612cb66128df612ca36040870187612840565b6101606040880152610160870191612871565b6080850135608085015260a085013560a085015260c085013560c085015260e085013560e0850152610100850135610100850152612cf8610120860186612840565b90858303610120870152612871565b92610140810190612840565b91610140818503910152612871565b3d15612d4c573d90612d33826123f3565b91612d4160405193846123bb565b82523d5f602084013e565b606090565b90602082519201516001600160e01b031981169260048110612d71575050565b6001600160e01b0319929350829060040360031b1b161690565b519065ffffffffffff8216820361041357565b90612da8826123dc565b612db560405191826123bb565b8281528092612dc6601f19916123dc565b01905f5b828110612dd657505050565b602090604051612de5816122e7565b5f81525f838201525f60408201525f606082015282828501015201612dca565b90926001600160a01b0390612e186127d6565b501690813b1561041357612ea493604051937fd12e825d0000000000000000000000000000000000000000000000000000000085525f935f8660048183855af1613002575b8495506001600160a01b0360405197889586957ffccb5ff600000000000000000000000000000000000000000000000000000000875260606004880152606487019161294e565b921660248401526044830152038183305af1918215612ff5578192612ec857505090565b9091503d8083833e612eda81836123bb565b810190602081830312610d2a578051906001600160401b038211610a1f5701916060838303126106d75760405192612f118461234d565b80518452602081015160208501526040810151906001600160401b038211610d2a570182601f820112156106d557805191612f4b836123dc565b93612f5960405195866123bb565b83855260208086019460051b84010192818411610d2a5760208101945b848610612f8b57505050505050604082015290565b85516001600160401b03811161053f5782016040818503601f19011261053f5760405190612fb882612332565b602081015182526040810151906001600160401b03821161053b5791612fe686602080969481960101612a0b565b83820152815201950194612f76565b50604051903d90823e3d90fd5b9350935f61300f916123bb565b5f928490612e5d565b604051906130276020836123bb565b5f80835282815b82811061303a57505050565b60209060405161304981612332565b5f81526060838201528282850101520161302e565b90600182811c9216801561308c575b602083101461307857565b634e487b7160e01b5f52602260045260245ffd5b91607f169161306d565b8181106130a1575050565b5f8155600101613096565b600160209193929384518155019201519182516001600160401b038111612302576130d7825461305e565b601f8111613177575b506020601f821160011461311957819293945f9261310e575b50508160011b915f199060031b1c1916179055565b015190505f806130f9565b601f19821690835f52805f20915f5b81811061315f57509583600195969710613147575b505050811b019055565b01515f1960f88460031b161c191690555f808061313d565b9192602060018192868b015181550194019201613128565b6131a290835f5260205f20601f840160051c810191602085106131a8575b601f0160051c0190613096565b5f6130e0565b9091508190613195565b919081101561278e5760051b8101359061015e1981360301821215610413570190565b919082039182116131e257565b634e487b7160e01b5f52601160045260245ffd5b919082018092116131e257565b5f5490680100000000000000008210156123025760018201805f5582101561278e575f80526132569160011b7f290decd9548b62a8d60345a988386fc84ba6bc95484008f6362f93160ef3e563016130ac565b565b5f5490613264826123dc565b9161327260405193846123bb565b8083525f808052907f290decd9548b62a8d60345a988386fc84ba6bc95484008f6362f93160ef3e563602085015b8284106132ad5750505050565b6040516132b981612332565b825481526040516001840180545f916132d18261305e565b80855291600181169081156133495750600114613312575b5050926002928261330060209460019703826123bb565b838201528152019201930192906132a0565b5f908152602081209092505b818310613333575050810160200182826132e9565b600181602092548386880101520192019161331e565b60ff191660208087019190915292151560051b850190920192508491508390506132e9565b6040519061337b8261239f565b606060e0835f81525f60208201525f60408201525f838201525f60808201525f60a08201525f60c08201520152565b9161270093916133c29160408552604085019161294e565b916020818403910152612891565b602081830312610413578051906001600160401b03821161041357016101008183031261041357604051916134048361239f565b815183526020820151602084015260408201516040840152606082015160608401526080820151608084015260a082015160a084015261344660c083016129fe565b60c084015260e08201516001600160401b038111610413576134689201612a0b565b60e082015290565b94919260c096999897946001600160a01b036134b395816134a59516895216602088015260e0604088015260e087019161294e565b908482036060860152612891565b95608083015260a08201520152565b9190826040910312610413576040516134da81612332565b6020808294805184520151910152565b919081101561278e5760051b0190565b356001600160a01b03811681036104135790565b919081101561278e5760051b8101359061011e1981360301821215610413570190565b61072b905f80949361355c8295604051958691602083019663428557b160e11b8852602484016127b6565b5a935193f16136d0573d604051906020818301016040528082525f602083013e60048151106136665763428557b160e11b6001600160e01b03196135a2611dbb8461373a565b16146135fc5780516135b3916137b5565b80518101604082820312610413576135cd602083016129fe565b916040810151916001600160401b038311610413576135f3926020809201920101612a0b565b9015611f315790565b608460405162461bcd60e51b815260206004820152603d60248201527f44656c6567617465416e6452657665727420646964206e6f742072657665727460448201527f20776974682044656c6567617465416e64526576657274206572726f720000006064820152fd5b608460405162461bcd60e51b815260206004820152602a60248201527f44656c6567617465416e6452657665727420726576657274206461746120697360448201527f20746f6f2073686f7274000000000000000000000000000000000000000000006064820152fd5b608460405162461bcd60e51b815260206004820152602c60248201527f44656c6567617465416e6452657665727420646964206e6f742072657665727460448201527f20617320657870656374656400000000000000000000000000000000000000006064820152fd5b905f91600490606093815160048111156137ad575b80156137a5575b5082811061376357505050565b6040519450918290039101601f8201601f19165b8181015185820152601f19019081156137905790613777565b505060408184015f6020820152016040528252565b90505f613756565b92508261374f565b91906004926060938151838111156137de575b60048111156137a5575082811061376357505050565b9250826137c856fea264697066735822122090322a41431155e058082c5a5a137fd9c25a58a9f03473e1005c0a25c3b506b264736f6c634300081c0033","linkReferences":{}},"methodIdentifiers":{"binarySearchCallGas(address,address,(address,uint256,bytes,bytes,bytes32,uint256,bytes32,bytes,bytes)[],(address,uint256,bytes,bytes,bytes32,uint256,bytes32,bytes,bytes),uint256,uint256,uint256)":"71349903","binarySearchPaymasterVerificationGas(address,address,(address,uint256,bytes,bytes,bytes32,uint256,bytes32,bytes,bytes)[],(address,uint256,bytes,bytes,bytes32,uint256,bytes32,bytes,bytes),uint256,uint256,uint256)":"9f2d3789","binarySearchVerificationGas(address,address,(address,uint256,bytes,bytes,bytes32,uint256,bytes32,bytes,bytes)[],(address,uint256,bytes,bytes,bytes32,uint256,bytes32,bytes,bytes),uint256,uint256,uint256)":"2e5a0a93","filterOps06((address,uint256,bytes,bytes,uint256,uint256,uint256,uint256,uint256,bytes,bytes)[],address,address)":"959c4cb7","filterOps07((address,uint256,bytes,bytes,bytes32,uint256,bytes32,bytes,bytes)[],address,address)":"fccb5ff6","filterOps08((address,uint256,bytes,bytes,bytes32,uint256,bytes32,bytes,bytes)[],address,address)":"861d9d59","filterOps09((address,uint256,bytes,bytes,bytes32,uint256,bytes32,bytes,bytes)[],address,address)":"82e542ed","getBalances(address[],address[])":"ef5bfc37","simulateAndEstimateGas(address,address,(address,uint256,bytes,bytes,bytes32,uint256,bytes32,bytes,bytes)[],(address,uint256,bytes,bytes,bytes32,uint256,bytes32,bytes,bytes),uint256,uint256,uint256)":"a4968eab","simulateAssetChange06((address,uint256,bytes,bytes,uint256,uint256,uint256,uint256,uint256,bytes,bytes),address,address[],address[])":"685f6026","simulateAssetChange07((address,uint256,bytes,bytes,bytes32,uint256,bytes32,bytes,bytes),address,address,address[],address[])":"b21b38c8","simulateAssetChange08((address,uint256,bytes,bytes,bytes32,uint256,bytes32,bytes,bytes),address,address,address[],address[])":"90d81dfb","simulateEntryPointBulk(address,address,bytes[])":"141eb033","simulateHandleOp(address,address,(address,uint256,bytes,bytes,bytes32,uint256,bytes32,bytes,bytes)[],(address,uint256,bytes,bytes,bytes32,uint256,bytes32,bytes,bytes))":"f1143043","simulateValidation(address,address,(address,uint256,bytes,bytes,bytes32,uint256,bytes32,bytes,bytes)[],(address,uint256,bytes,bytes,bytes32,uint256,bytes32,bytes,bytes))":"de040de1"},"id":174}